{
    "contractName": "Date",
    "abi": [
        {
            "inputs": [],
            "stateMutability": "nonpayable",
            "type": "constructor"
        },
        {
            "anonymous": false,
            "inputs": [
                {
                    "indexed": true,
                    "internalType": "address",
                    "name": "owner",
                    "type": "address"
                },
                {
                    "indexed": true,
                    "internalType": "address",
                    "name": "approved",
                    "type": "address"
                },
                {
                    "indexed": true,
                    "internalType": "uint256",
                    "name": "tokenId",
                    "type": "uint256"
                }
            ],
            "name": "Approval",
            "type": "event"
        },
        {
            "anonymous": false,
            "inputs": [
                {
                    "indexed": true,
                    "internalType": "address",
                    "name": "owner",
                    "type": "address"
                },
                {
                    "indexed": true,
                    "internalType": "address",
                    "name": "operator",
                    "type": "address"
                },
                {
                    "indexed": false,
                    "internalType": "bool",
                    "name": "approved",
                    "type": "bool"
                }
            ],
            "name": "ApprovalForAll",
            "type": "event"
        },
        {
            "anonymous": false,
            "inputs": [
                {
                    "indexed": true,
                    "internalType": "address",
                    "name": "previousOwner",
                    "type": "address"
                },
                {
                    "indexed": true,
                    "internalType": "address",
                    "name": "newOwner",
                    "type": "address"
                }
            ],
            "name": "OwnershipTransferred",
            "type": "event"
        },
        {
            "anonymous": false,
            "inputs": [
                {
                    "indexed": true,
                    "internalType": "address",
                    "name": "from",
                    "type": "address"
                },
                {
                    "indexed": true,
                    "internalType": "address",
                    "name": "to",
                    "type": "address"
                },
                {
                    "indexed": true,
                    "internalType": "uint256",
                    "name": "tokenId",
                    "type": "uint256"
                }
            ],
            "name": "Transfer",
            "type": "event"
        },
        {
            "inputs": [
                {
                    "internalType": "address",
                    "name": "to",
                    "type": "address"
                },
                {
                    "internalType": "uint256",
                    "name": "tokenId",
                    "type": "uint256"
                }
            ],
            "name": "approve",
            "outputs": [],
            "stateMutability": "nonpayable",
            "type": "function"
        },
        {
            "inputs": [
                {
                    "internalType": "address",
                    "name": "owner",
                    "type": "address"
                }
            ],
            "name": "balanceOf",
            "outputs": [
                {
                    "internalType": "uint256",
                    "name": "",
                    "type": "uint256"
                }
            ],
            "stateMutability": "view",
            "type": "function"
        },
        {
            "inputs": [
                {
                    "internalType": "uint16",
                    "name": "year",
                    "type": "uint16"
                },
                {
                    "internalType": "uint8",
                    "name": "month",
                    "type": "uint8"
                },
                {
                    "internalType": "uint8",
                    "name": "day",
                    "type": "uint8"
                },
                {
                    "internalType": "string",
                    "name": "title",
                    "type": "string"
                }
            ],
            "name": "changeTitleOf",
            "outputs": [],
            "stateMutability": "nonpayable",
            "type": "function"
        },
        {
            "inputs": [
                {
                    "internalType": "uint256",
                    "name": "tokenId",
                    "type": "uint256"
                },
                {
                    "internalType": "string",
                    "name": "title",
                    "type": "string"
                }
            ],
            "name": "changeTitleOf",
            "outputs": [],
            "stateMutability": "nonpayable",
            "type": "function"
        },
        {
            "inputs": [
                {
                    "internalType": "uint16",
                    "name": "year",
                    "type": "uint16"
                },
                {
                    "internalType": "uint8",
                    "name": "month",
                    "type": "uint8"
                },
                {
                    "internalType": "uint8",
                    "name": "day",
                    "type": "uint8"
                },
                {
                    "internalType": "string",
                    "name": "title",
                    "type": "string"
                }
            ],
            "name": "claim",
            "outputs": [],
            "stateMutability": "payable",
            "type": "function"
        },
        {
            "inputs": [
                {
                    "internalType": "uint256",
                    "name": "tokenId",
                    "type": "uint256"
                }
            ],
            "name": "get",
            "outputs": [
                {
                    "internalType": "uint16",
                    "name": "year",
                    "type": "uint16"
                },
                {
                    "internalType": "uint8",
                    "name": "month",
                    "type": "uint8"
                },
                {
                    "internalType": "uint8",
                    "name": "day",
                    "type": "uint8"
                },
                {
                    "internalType": "uint8",
                    "name": "color",
                    "type": "uint8"
                },
                {
                    "internalType": "string",
                    "name": "title",
                    "type": "string"
                }
            ],
            "stateMutability": "view",
            "type": "function"
        },
        {
            "inputs": [
                {
                    "internalType": "uint256",
                    "name": "tokenId",
                    "type": "uint256"
                }
            ],
            "name": "getApproved",
            "outputs": [
                {
                    "internalType": "address",
                    "name": "",
                    "type": "address"
                }
            ],
            "stateMutability": "view",
            "type": "function"
        },
        {
            "inputs": [
                {
                    "internalType": "address",
                    "name": "owner",
                    "type": "address"
                },
                {
                    "internalType": "address",
                    "name": "operator",
                    "type": "address"
                }
            ],
            "name": "isApprovedForAll",
            "outputs": [
                {
                    "internalType": "bool",
                    "name": "",
                    "type": "bool"
                }
            ],
            "stateMutability": "view",
            "type": "function"
        },
        {
            "inputs": [
                {
                    "internalType": "uint16",
                    "name": "year",
                    "type": "uint16"
                }
            ],
            "name": "isLeapYear",
            "outputs": [
                {
                    "internalType": "bool",
                    "name": "",
                    "type": "bool"
                }
            ],
            "stateMutability": "pure",
            "type": "function"
        },
        {
            "inputs": [],
            "name": "name",
            "outputs": [
                {
                    "internalType": "string",
                    "name": "",
                    "type": "string"
                }
            ],
            "stateMutability": "view",
            "type": "function"
        },
        {
            "inputs": [
                {
                    "internalType": "uint8",
                    "name": "month",
                    "type": "uint8"
                },
                {
                    "internalType": "uint16",
                    "name": "year",
                    "type": "uint16"
                }
            ],
            "name": "numDaysInMonth",
            "outputs": [
                {
                    "internalType": "uint8",
                    "name": "",
                    "type": "uint8"
                }
            ],
            "stateMutability": "pure",
            "type": "function"
        },
        {
            "inputs": [],
            "name": "owner",
            "outputs": [
                {
                    "internalType": "address",
                    "name": "",
                    "type": "address"
                }
            ],
            "stateMutability": "view",
            "type": "function"
        },
        {
            "inputs": [
                {
                    "internalType": "uint16",
                    "name": "year",
                    "type": "uint16"
                },
                {
                    "internalType": "uint8",
                    "name": "month",
                    "type": "uint8"
                },
                {
                    "internalType": "uint8",
                    "name": "day",
                    "type": "uint8"
                }
            ],
            "name": "ownerOf",
            "outputs": [
                {
                    "internalType": "address",
                    "name": "",
                    "type": "address"
                }
            ],
            "stateMutability": "view",
            "type": "function"
        },
        {
            "inputs": [
                {
                    "internalType": "uint256",
                    "name": "tokenId",
                    "type": "uint256"
                }
            ],
            "name": "ownerOf",
            "outputs": [
                {
                    "internalType": "address",
                    "name": "",
                    "type": "address"
                }
            ],
            "stateMutability": "view",
            "type": "function"
        },
        {
            "inputs": [],
            "name": "renounceOwnership",
            "outputs": [],
            "stateMutability": "nonpayable",
            "type": "function"
        },
        {
            "inputs": [
                {
                    "internalType": "address",
                    "name": "from",
                    "type": "address"
                },
                {
                    "internalType": "address",
                    "name": "to",
                    "type": "address"
                },
                {
                    "internalType": "uint256",
                    "name": "tokenId",
                    "type": "uint256"
                }
            ],
            "name": "safeTransferFrom",
            "outputs": [],
            "stateMutability": "nonpayable",
            "type": "function"
        },
        {
            "inputs": [
                {
                    "internalType": "address",
                    "name": "from",
                    "type": "address"
                },
                {
                    "internalType": "address",
                    "name": "to",
                    "type": "address"
                },
                {
                    "internalType": "uint256",
                    "name": "tokenId",
                    "type": "uint256"
                },
                {
                    "internalType": "bytes",
                    "name": "_data",
                    "type": "bytes"
                }
            ],
            "name": "safeTransferFrom",
            "outputs": [],
            "stateMutability": "nonpayable",
            "type": "function"
        },
        {
            "inputs": [
                {
                    "internalType": "address",
                    "name": "operator",
                    "type": "address"
                },
                {
                    "internalType": "bool",
                    "name": "approved",
                    "type": "bool"
                }
            ],
            "name": "setApprovalForAll",
            "outputs": [],
            "stateMutability": "nonpayable",
            "type": "function"
        },
        {
            "inputs": [
                {
                    "internalType": "string",
                    "name": "baseURI",
                    "type": "string"
                }
            ],
            "name": "setBaseURI",
            "outputs": [],
            "stateMutability": "nonpayable",
            "type": "function"
        },
        {
            "inputs": [
                {
                    "internalType": "bytes4",
                    "name": "interfaceId",
                    "type": "bytes4"
                }
            ],
            "name": "supportsInterface",
            "outputs": [
                {
                    "internalType": "bool",
                    "name": "",
                    "type": "bool"
                }
            ],
            "stateMutability": "view",
            "type": "function"
        },
        {
            "inputs": [],
            "name": "symbol",
            "outputs": [
                {
                    "internalType": "string",
                    "name": "",
                    "type": "string"
                }
            ],
            "stateMutability": "view",
            "type": "function"
        },
        {
            "inputs": [
                {
                    "internalType": "uint256",
                    "name": "timestamp",
                    "type": "uint256"
                }
            ],
            "name": "timestampToDate",
            "outputs": [
                {
                    "internalType": "uint16",
                    "name": "year",
                    "type": "uint16"
                },
                {
                    "internalType": "uint8",
                    "name": "month",
                    "type": "uint8"
                },
                {
                    "internalType": "uint8",
                    "name": "day",
                    "type": "uint8"
                }
            ],
            "stateMutability": "pure",
            "type": "function"
        },
        {
            "inputs": [
                {
                    "internalType": "uint16",
                    "name": "year",
                    "type": "uint16"
                },
                {
                    "internalType": "uint8",
                    "name": "month",
                    "type": "uint8"
                },
                {
                    "internalType": "uint8",
                    "name": "day",
                    "type": "uint8"
                }
            ],
            "name": "titleOf",
            "outputs": [
                {
                    "internalType": "string",
                    "name": "",
                    "type": "string"
                }
            ],
            "stateMutability": "view",
            "type": "function"
        },
        {
            "inputs": [
                {
                    "internalType": "uint256",
                    "name": "tokenId",
                    "type": "uint256"
                }
            ],
            "name": "titleOf",
            "outputs": [
                {
                    "internalType": "string",
                    "name": "",
                    "type": "string"
                }
            ],
            "stateMutability": "view",
            "type": "function"
        },
        {
            "inputs": [
                {
                    "internalType": "uint256",
                    "name": "tokenId",
                    "type": "uint256"
                }
            ],
            "name": "tokenURI",
            "outputs": [
                {
                    "internalType": "string",
                    "name": "",
                    "type": "string"
                }
            ],
            "stateMutability": "view",
            "type": "function"
        },
        {
            "inputs": [
                {
                    "internalType": "address",
                    "name": "from",
                    "type": "address"
                },
                {
                    "internalType": "address",
                    "name": "to",
                    "type": "address"
                },
                {
                    "internalType": "uint256",
                    "name": "tokenId",
                    "type": "uint256"
                }
            ],
            "name": "transferFrom",
            "outputs": [],
            "stateMutability": "nonpayable",
            "type": "function"
        },
        {
            "inputs": [
                {
                    "internalType": "address",
                    "name": "newOwner",
                    "type": "address"
                }
            ],
            "name": "transferOwnership",
            "outputs": [],
            "stateMutability": "nonpayable",
            "type": "function"
        }
    ],
    "bytecode": "60806040523480156200001157600080fd5b50604051806040016040528060048152602001634461746560e01b815250604051806040016040528060048152602001634441544560e01b81525062000066620000606200031060201b60201c565b62000314565b81516200007b90600190602085019062000c9f565b5080516200009190600290602084019062000c9f565b505060408051808201909152601781527f68747470733a2f2f6c6f63616c686f73742f746f6b656e0000000000000000006020820152620000d3915062000364565b62000109600180600160046040518060400160405280600681526020016527a924a3a4a760d11b815250620003dd60201b60201c565b600080806200011842620004b9565b9250925092506200015c83838360046040518060400160405280601081526020016f11185d1948151bdad95b8814dd185c9d60821b815250620003dd60201b60201c565b620001996107df6007601e60066040518060400160405280600b81526020016a4554482047454e4553495360a81b815250620003dd60201b60201c565b620001c66105ac6004600f60056040518060600160405280602681526020016200388160269139620003dd565b620001f3610645600b600560016040518060600160405280602881526020016200385960289139620003dd565b6200024261061c6004601760026040518060400160405280601381526020017f546f2062652c206f72206e6f7420746f20626500000000000000000000000000815250620003dd60201b60201c565b620002916107b16007601460036040518060400160405280601681526020017f4f6e6520736d616c6c207374657020666f72206d616e00000000000000000000815250620003dd60201b60201c565b620002c66107c26006600c60006040518060400160405280600381526020016210d09160ea1b815250620003dd60201b60201c565b620003076107b36006601c60076040518060400160405280600f81526020016e456c6f6e277320426972746864617960881b815250620003dd60201b60201c565b50505062000eee565b3390565b600080546001600160a01b038381166001600160a01b0319831681178455604051919092169283917f8be0079c531659141344cd1fd0a4f28419497f9722a3daafe3b4186f6b6457e09190a35050565b6000546001600160a01b03163314620003c45760405162461bcd60e51b815260206004820181905260248201527f4f776e61626c653a2063616c6c6572206973206e6f7420746865206f776e657260448201526064015b60405180910390fd5b8051620003d990600890602084019062000c9f565b5050565b6000620003ec868686620006ac565b6040805160a08101825261ffff808a16825260ff808a1660208085019182528a83168587019081528a841660608701908152608087018b815260008a815260078552989098208751815495519351925187166401000000000260ff60201b199388166301000000029390931664ffff0000001994909716620100000262ffffff199096169716969096179390931716929092171782559251805194955091939092620004a092600185019291019062000c9f565b50620004b19150339050826200074e565b505050505050565b6000808080620004cd620151808662000d71565b620004dc90620afa6c62000d88565b90506000620004ef62023ab18362000d71565b90506000620005028262023ab162000dbd565b6200050e908462000da3565b9050600061016d6200052462023ab08462000d71565b62000532618eac8562000d71565b620005406105b48662000d71565b6200054c908662000da3565b62000558919062000d88565b62000564919062000da3565b62000570919062000d71565b905060006200058160648362000d71565b6200058e60048462000d71565b6200059c8461016d62000dbd565b620005a8919062000d88565b620005b4919062000da3565b620005c0908462000da3565b905060006099620005d383600562000dbd565b620005e090600262000d88565b620005ec919062000d71565b90506005620005fd82609962000dbd565b6200060a90600262000d88565b62000616919062000d71565b62000622908362000da3565b6200062f90600162000d88565b9650600a81106200064d576200064760098262000da3565b6200065a565b6200065a81600362000d88565b975060028860ff1611156200067157600062000674565b60015b60ff16620006858661019062000dbd565b62000691908562000d88565b6200069d919062000d88565b98505050505050509193909250565b60008160ff16600111158015620006d45750620006ca838562000770565b60ff168260ff1611155b620006de57600080fd5b60018260ff1660018560ff16620006f6919062000da3565b6200070390601f62000dbd565b62000714600161ffff891662000da3565b620007229061017462000dbd565b6200072e919062000d88565b6200073a919062000d88565b62000746919062000da3565b949350505050565b620003d9828260405180602001604052806000815250620008da60201b60201c565b60008260ff166001111580156200078b5750600c8360ff1611155b620007d95760405162461bcd60e51b815260206004820152601e60248201527f6d6f6e7468206d757374206265206265747765656e203120616e6420313200006044820152606401620003bb565b8161ffff1660011115620008305760405162461bcd60e51b815260206004820152601e60248201527f79656172206d75737420626520626967676572206f7220657175616c203100006044820152606401620003bb565b8260ff16600114806200084657508260ff166003145b806200085557508260ff166005145b806200086457508260ff166007145b806200087357508260ff166008145b806200088257508260ff16600a145b806200089157508260ff16600c145b15620008a05750601f620008d4565b8260ff1660021415620008d057620008b88262000952565b620008c557601c620008c8565b601d5b9050620008d4565b50601e5b92915050565b620008e68383620009f9565b620008f5600084848462000b41565b6200094d5760405162461bcd60e51b815260206004820152603260248201526000805160206200383983398151915260448201527131b2b4bb32b91034b6b83632b6b2b73a32b960711b6064820152608401620003bb565b505050565b60008161ffff1660011115620009ab5760405162461bcd60e51b815260206004820152601e60248201527f79656172206d75737420626520626967676572206f7220657175616c203100006044820152606401620003bb565b620009b860048362000ddf565b61ffff16158015620009d85750620009d260648362000ddf565b61ffff16155b8015620008d45750620009ee6101908362000ddf565b61ffff161592915050565b6001600160a01b03821662000a515760405162461bcd60e51b815260206004820181905260248201527f4552433732313a206d696e7420746f20746865207a65726f20616464726573736044820152606401620003bb565b6000818152600360205260409020546001600160a01b03161562000ab85760405162461bcd60e51b815260206004820152601c60248201527f4552433732313a20746f6b656e20616c7265616479206d696e746564000000006044820152606401620003bb565b6001600160a01b038216600090815260046020526040812080546001929062000ae390849062000d88565b909155505060008181526003602052604080822080546001600160a01b0319166001600160a01b03861690811790915590518392907fddf252ad1be2c89b69c2b068fc378daa952ba7f163c4a11628f55a4df523b3ef908290a45050565b600062000b62846001600160a01b031662000c9960201b620016841760201c565b1562000c8e57604051630a85bd0160e11b81526001600160a01b0385169063150b7a029062000b9c90339089908890889060040162000e03565b6020604051808303816000875af192505050801562000bda575060408051601f3d908101601f1916820190925262000bd79181019062000e7e565b60015b62000c73573d80801562000c0b576040519150601f19603f3d011682016040523d82523d6000602084013e62000c10565b606091505b50805162000c6b5760405162461bcd60e51b815260206004820152603260248201526000805160206200383983398151915260448201527131b2b4bb32b91034b6b83632b6b2b73a32b960711b6064820152608401620003bb565b805181602001fd5b6001600160e01b031916630a85bd0160e11b14905062000746565b506001949350505050565b3b151590565b82805462000cad9062000eb1565b90600052602060002090601f01602090048101928262000cd1576000855562000d1c565b82601f1062000cec57805160ff191683800117855562000d1c565b8280016001018555821562000d1c579182015b8281111562000d1c57825182559160200191906001019062000cff565b5062000d2a92915062000d2e565b5090565b5b8082111562000d2a576000815560010162000d2f565b634e487b7160e01b600052601260045260246000fd5b634e487b7160e01b600052601160045260246000fd5b60008262000d835762000d8362000d45565b500490565b6000821982111562000d9e5762000d9e62000d5b565b500190565b60008282101562000db85762000db862000d5b565b500390565b600081600019048311821515161562000dda5762000dda62000d5b565b500290565b600061ffff8084168062000df75762000df762000d45565b92169190910692915050565b600060018060a01b038087168352602081871681850152856040850152608060608501528451915081608085015260005b8281101562000e525785810182015185820160a00152810162000e34565b8281111562000e6557600060a084870101525b5050601f01601f19169190910160a00195945050505050565b60006020828403121562000e9157600080fd5b81516001600160e01b03198116811462000eaa57600080fd5b9392505050565b600181811c9082168062000ec657607f821691505b6020821081141562000ee857634e487b7160e01b600052602260045260246000fd5b50919050565b61293b8062000efe6000396000f3fe60806040526004361061019c5760003560e01c8063715018a6116100ec578063b3a083fa1161008a578063daf7c16611610064578063daf7c166146104be578063de5101af146104de578063e985e9c514610522578063f2fde38b1461056b57600080fd5b8063b3a083fa1461045e578063b88d4fde1461047e578063c87b56dd1461049e57600080fd5b806395d89b41116100c657806395d89b41146103e9578063a22cb465146103fe578063a6f0e5771461041e578063a8c243301461043e57600080fd5b8063715018a6146103855780638da5cb5b1461039a5780639507d39a146103b857600080fd5b806339eac6ab1161015957806355f804b31161013357806355f804b3146103045780635b6f29b7146103245780636352211e1461033757806370a082311461035757600080fd5b806339eac6ab1461029257806342842e0e146102b25780635333f08f146102d257600080fd5b806301ffc9a7146101a157806306fdde03146101d6578063081812fc146101f8578063095ea7b314610230578063232f8ecc1461025257806323b872dd14610272575b600080fd5b3480156101ad57600080fd5b506101c16101bc3660046120c0565b61058b565b60405190151581526020015b60405180910390f35b3480156101e257600080fd5b506101eb6105dd565b6040516101cd9190612135565b34801561020457600080fd5b50610218610213366004612148565b61066f565b6040516001600160a01b0390911681526020016101cd565b34801561023c57600080fd5b5061025061024b36600461217d565b6106fc565b005b34801561025e57600080fd5b5061025061026d366004612276565b610812565b34801561027e57600080fd5b5061025061028d3660046122e5565b61085b565b34801561029e57600080fd5b506102186102ad366004612321565b61088c565b3480156102be57600080fd5b506102506102cd3660046122e5565b6108a4565b3480156102de57600080fd5b506102f26102ed366004612364565b6108bf565b60405160ff90911681526020016101cd565b34801561031057600080fd5b5061025061031f366004612397565b610a15565b6102506103323660046123cc565b610a56565b34801561034357600080fd5b50610218610352366004612148565b610ceb565b34801561036357600080fd5b5061037761037236600461246e565b610d62565b6040519081526020016101cd565b34801561039157600080fd5b50610250610de9565b3480156103a657600080fd5b506000546001600160a01b0316610218565b3480156103c457600080fd5b506103d86103d3366004612148565b610e1f565b6040516101cd959493929190612489565b3480156103f557600080fd5b506101eb610f65565b34801561040a57600080fd5b506102506104193660046124cc565b610f74565b34801561042a57600080fd5b506101c1610439366004612508565b610f7f565b34801561044a57600080fd5b506101eb610459366004612321565b61101c565b34801561046a57600080fd5b50610250610479366004612523565b611157565b34801561048a57600080fd5b5061025061049936600461256a565b61121a565b3480156104aa57600080fd5b506101eb6104b9366004612148565b61124c565b3480156104ca57600080fd5b506101eb6104d9366004612148565b611317565b3480156104ea57600080fd5b506104fe6104f9366004612148565b611438565b6040805161ffff909416845260ff92831660208501529116908201526060016101cd565b34801561052e57600080fd5b506101c161053d3660046125da565b6001600160a01b03918216600090815260066020908152604080832093909416825291909152205460ff1690565b34801561057757600080fd5b5061025061058636600461246e565b6115e9565b60006001600160e01b031982166380ac58cd60e01b14806105bc57506001600160e01b03198216635b5e139f60e01b145b806105d757506301ffc9a760e01b6001600160e01b03198316145b92915050565b6060600180546105ec90612604565b80601f016020809104026020016040519081016040528092919081815260200182805461061890612604565b80156106655780601f1061063a57610100808354040283529160200191610665565b820191906000526020600020905b81548152906001019060200180831161064857829003601f168201915b5050505050905090565b600061067a8261168a565b6106e05760405162461bcd60e51b815260206004820152602c60248201527f4552433732313a20617070726f76656420717565727920666f72206e6f6e657860448201526b34b9ba32b73a103a37b5b2b760a11b60648201526084015b60405180910390fd5b506000908152600560205260409020546001600160a01b031690565b600061070782610ceb565b9050806001600160a01b0316836001600160a01b031614156107755760405162461bcd60e51b815260206004820152602160248201527f4552433732313a20617070726f76616c20746f2063757272656e74206f776e656044820152603960f91b60648201526084016106d7565b336001600160a01b03821614806107915750610791813361053d565b6108035760405162461bcd60e51b815260206004820152603860248201527f4552433732313a20617070726f76652063616c6c6572206973206e6f74206f7760448201527f6e6572206e6f7220617070726f76656420666f7220616c6c000000000000000060648201526084016106d7565b61080d83836116a7565b505050565b610825610820858585611715565b61168a565b6108415760405162461bcd60e51b81526004016106d79061263f565b61085561084f858585611715565b82611157565b50505050565b610865338261179d565b6108815760405162461bcd60e51b81526004016106d790612669565b61080d838383611883565b600061089c610352858585611715565b949350505050565b61080d8383836040518060200160405280600081525061121a565b60008260ff166001111580156108d95750600c8360ff1611155b6109255760405162461bcd60e51b815260206004820152601e60248201527f6d6f6e7468206d757374206265206265747765656e203120616e64203132000060448201526064016106d7565b8161ffff166001111561097a5760405162461bcd60e51b815260206004820152601e60248201527f79656172206d75737420626520626967676572206f7220657175616c2031000060448201526064016106d7565b8260ff166001148061098f57508260ff166003145b8061099d57508260ff166005145b806109ab57508260ff166007145b806109b957508260ff166008145b806109c757508260ff16600a145b806109d557508260ff16600c145b156109e25750601f6105d7565b8260ff1660021415610a0c576109f782610f7f565b610a0257601c610a05565b601d5b90506105d7565b50601e92915050565b6000546001600160a01b03163314610a3f5760405162461bcd60e51b81526004016106d7906126ba565b8051610a52906008906020840190612011565b5050565b34662386f26fc1000014610aac5760405162461bcd60e51b815260206004820152601f60248201527f636c61696d696e672061206461746520636f7374732031302066696e6e65790060448201526064016106d7565b6000806000610aba42611438565b9250925092508261ffff168861ffff161180610aed57508261ffff168861ffff16148015610aed57508160ff168760ff16115b80610b2057508261ffff168861ffff16148015610b0f57508160ff168760ff16145b8015610b2057508060ff168660ff16115b15610b7d5760405162461bcd60e51b815260206004820152602760248201527f6120646174652066726f6d20746865206675747572652063616e27742062652060448201526618db185a5b595960ca1b60648201526084016106d7565b600080620f4240610bc68b8b8b8b8b8080601f016020809104026020016040519081016040528093929190818152602001838380828437600092019190915250611a2392505050565b610bd09190612705565b90506103e8811015610be55760079150610c60565b611770811015610bf85760069150610c60565b613e80811015610c0b5760059150610c60565b620101d0811015610c1f5760049150610c60565b62028870811015610c335760039150610c60565b620595b0811015610c475760029150610c60565b620a2990811015610c5b5760019150610c60565b600091505b610ca38a8a8a858b8b8080601f016020809104026020016040519081016040528093929190818152602001838380828437600092019190915250611a6192505050565b600080546040516001600160a01b039091169190662386f26fc100009082818181858883f19350505050158015610cde573d6000803e3d6000fd5b5050505050505050505050565b6000818152600360205260408120546001600160a01b0316806105d75760405162461bcd60e51b815260206004820152602960248201527f4552433732313a206f776e657220717565727920666f72206e6f6e657869737460448201526832b73a103a37b5b2b760b91b60648201526084016106d7565b60006001600160a01b038216610dcd5760405162461bcd60e51b815260206004820152602a60248201527f4552433732313a2062616c616e636520717565727920666f7220746865207a65604482015269726f206164647265737360b01b60648201526084016106d7565b506001600160a01b031660009081526004602052604090205490565b6000546001600160a01b03163314610e135760405162461bcd60e51b81526004016106d7906126ba565b610e1d6000611b37565b565b6000806000806060610e308661168a565b610e4c5760405162461bcd60e51b81526004016106d79061263f565b6000868152600760209081526040808320815160a081018352815461ffff8116825260ff620100008204811695830195909552630100000081048516938201939093526401000000009092049092166060820152600182018054919291608084019190610eb890612604565b80601f0160208091040260200160405190810160405280929190818152602001828054610ee490612604565b8015610f315780601f10610f0657610100808354040283529160200191610f31565b820191906000526020600020905b815481529060010190602001808311610f1457829003601f168201915b5050509190925250508151602083015160408401516060850151608090950151929c919b5099509297509550909350505050565b6060600280546105ec90612604565b610a52338383611b87565b60008161ffff1660011115610fd65760405162461bcd60e51b815260206004820152601e60248201527f79656172206d75737420626520626967676572206f7220657175616c2031000060448201526064016106d7565b610fe1600483612719565b61ffff16158015610ffe5750610ff8606483612719565b61ffff16155b80156105d7575061101161019083612719565b61ffff161592915050565b606061102c610820858585611715565b6110485760405162461bcd60e51b81526004016106d79061263f565b600060076000611059878787611715565b81526020808201929092526040908101600020815160a081018352815461ffff8116825260ff6201000082048116958301959095526301000000810485169382019390935264010000000090920490921660608201526001820180549192916080840191906110c790612604565b80601f01602080910402602001604051908101604052809291908181526020018280546110f390612604565b80156111405780601f1061111557610100808354040283529160200191611140565b820191906000526020600020905b81548152906001019060200180831161112357829003601f168201915b505050919092525050506080015195945050505050565b6111608261168a565b61117c5760405162461bcd60e51b81526004016106d79061263f565b3361118683610ceb565b6001600160a01b0316146111f55760405162461bcd60e51b815260206004820152603060248201527f6f6e6c7920746865206f776e6572206f66207468697320646174652063616e2060448201526f6368616e676520697473207469746c6560801b60648201526084016106d7565b6000828152600760209081526040909120825161080d92600190920191840190612011565b611224338361179d565b6112405760405162461bcd60e51b81526004016106d790612669565b61085584848484611c56565b60606112578261168a565b6112bb5760405162461bcd60e51b815260206004820152602f60248201527f4552433732314d657461646174613a2055524920717565727920666f72206e6f60448201526e3732bc34b9ba32b73a103a37b5b2b760891b60648201526084016106d7565b60006112c5611c89565b905060008151116112e55760405180602001604052806000815250611310565b806112ef84611c98565b60405160200161130092919061273a565b6040516020818303038152906040525b9392505050565b60606113228261168a565b61133e5760405162461bcd60e51b81526004016106d79061263f565b6000828152600760209081526040808320815160a081018352815461ffff8116825260ff6201000082048116958301959095526301000000810485169382019390935264010000000090920490921660608201526001820180549192916080840191906113aa90612604565b80601f01602080910402602001604051908101604052809291908181526020018280546113d690612604565b80156114235780601f106113f857610100808354040283529160200191611423565b820191906000526020600020905b81548152906001019060200180831161140657829003601f168201915b50505091909252505050608001519392505050565b600080808061144a620151808661277f565b61145790620afa6c612793565b9050600061146862023ab18361277f565b905060006114798262023ab16127c2565b61148390846127ab565b9050600061016d61149762023ab08461277f565b6114a3618eac8561277f565b6114af6105b48661277f565b6114b990866127ab565b6114c39190612793565b6114cd91906127ab565b6114d7919061277f565b905060006114e660648361277f565b6114f160048461277f565b6114fd8461016d6127c2565b6115079190612793565b61151191906127ab565b61151b90846127ab565b90506000609961152c8360056127c2565b611537906002612793565b611541919061277f565b905060056115508260996127c2565b61155b906002612793565b611565919061277f565b61156f90836127ab565b61157a906001612793565b9650600a81106115945761158f6009826127ab565b61159f565b61159f816003612793565b975060028860ff1611156115b45760006115b7565b60015b60ff166115c6866101906127c2565b6115d09085612793565b6115da9190612793565b98505050505050509193909250565b6000546001600160a01b031633146116135760405162461bcd60e51b81526004016106d7906126ba565b6001600160a01b0381166116785760405162461bcd60e51b815260206004820152602660248201527f4f776e61626c653a206e6577206f776e657220697320746865207a65726f206160448201526564647265737360d01b60648201526084016106d7565b61168181611b37565b50565b3b151590565b6000908152600360205260409020546001600160a01b0316151590565b600081815260056020526040902080546001600160a01b0319166001600160a01b03841690811790915581906116dc82610ceb565b6001600160a01b03167f8c5be1e5ebec7d5bd14f71427d1e84f3dd0314c0f7b2291e5b200ac8c7c3b92560405160405180910390a45050565b60008160ff1660011115801561173a575061173083856108bf565b60ff168260ff1611155b61174357600080fd5b60018260ff1660018560ff1661175991906127ab565b61176490601f6127c2565b611773600161ffff89166127ab565b61177f906101746127c2565b6117899190612793565b6117939190612793565b61089c91906127ab565b60006117a88261168a565b6118095760405162461bcd60e51b815260206004820152602c60248201527f4552433732313a206f70657261746f7220717565727920666f72206e6f6e657860448201526b34b9ba32b73a103a37b5b2b760a11b60648201526084016106d7565b600061181483610ceb565b9050806001600160a01b0316846001600160a01b0316148061184f5750836001600160a01b03166118448461066f565b6001600160a01b0316145b8061089c57506001600160a01b0380821660009081526006602090815260408083209388168352929052205460ff1661089c565b826001600160a01b031661189682610ceb565b6001600160a01b0316146118fe5760405162461bcd60e51b815260206004820152602960248201527f4552433732313a207472616e73666572206f6620746f6b656e2074686174206960448201526839903737ba1037bbb760b91b60648201526084016106d7565b6001600160a01b0382166119605760405162461bcd60e51b8152602060048201526024808201527f4552433732313a207472616e7366657220746f20746865207a65726f206164646044820152637265737360e01b60648201526084016106d7565b61196b6000826116a7565b6001600160a01b03831660009081526004602052604081208054600192906119949084906127ab565b90915550506001600160a01b03821660009081526004602052604081208054600192906119c2908490612793565b909155505060008181526003602052604080822080546001600160a01b0319166001600160a01b0386811691821790925591518493918716917fddf252ad1be2c89b69c2b068fc378daa952ba7f163c4a11628f55a4df523b3ef91a4505050565b6000424486868686604051602001611a40969594939291906127e1565b60408051601f19818403018152919052805160209091012095945050505050565b6000611a6e868686611715565b6040805160a08101825261ffff808a16825260ff808a1660208085019182528a83168587019081528a841660608701908152608087018b815260008a815260078552989098208751815495519351925187166401000000000264ff00000000199388166301000000029390931664ffff0000001994909716620100000262ffffff199096169716969096179390931716929092171782559251805194955091939092611b21926001850192910190612011565b50905050611b2f3382611d96565b505050505050565b600080546001600160a01b038381166001600160a01b0319831681178455604051919092169283917f8be0079c531659141344cd1fd0a4f28419497f9722a3daafe3b4186f6b6457e09190a35050565b816001600160a01b0316836001600160a01b03161415611be95760405162461bcd60e51b815260206004820152601960248201527f4552433732313a20617070726f766520746f2063616c6c65720000000000000060448201526064016106d7565b6001600160a01b03838116600081815260066020908152604080832094871680845294825291829020805460ff191686151590811790915591519182527f17307eab39ab6107e8899845ad3d59bd9653f200f220920489ca2b5937696c31910160405180910390a3505050565b611c61848484611883565b611c6d84848484611db0565b6108555760405162461bcd60e51b81526004016106d790612828565b6060600880546105ec90612604565b606081611cbc5750506040805180820190915260018152600360fc1b602082015290565b8160005b8115611ce65780611cd08161287a565b9150611cdf9050600a8361277f565b9150611cc0565b60008167ffffffffffffffff811115611d0157611d016121ca565b6040519080825280601f01601f191660200182016040528015611d2b576020820181803683370190505b5090505b841561089c57611d406001836127ab565b9150611d4d600a86612705565b611d58906030612793565b60f81b818381518110611d6d57611d6d612895565b60200101906001600160f81b031916908160001a905350611d8f600a8661277f565b9450611d2f565b610a52828260405180602001604052806000815250611eab565b60006001600160a01b0384163b15611ea357604051630a85bd0160e11b81526001600160a01b0385169063150b7a0290611df49033908990889088906004016128ab565b6020604051808303816000875af1925050508015611e2f575060408051601f3d908101601f19168201909252611e2c918101906128e8565b60015b611e89573d808015611e5d576040519150601f19603f3d011682016040523d82523d6000602084013e611e62565b606091505b508051611e815760405162461bcd60e51b81526004016106d790612828565b805181602001fd5b6001600160e01b031916630a85bd0160e11b14905061089c565b50600161089c565b611eb58383611ede565b611ec26000848484611db0565b61080d5760405162461bcd60e51b81526004016106d790612828565b6001600160a01b038216611f345760405162461bcd60e51b815260206004820181905260248201527f4552433732313a206d696e7420746f20746865207a65726f206164647265737360448201526064016106d7565b611f3d8161168a565b15611f8a5760405162461bcd60e51b815260206004820152601c60248201527f4552433732313a20746f6b656e20616c7265616479206d696e7465640000000060448201526064016106d7565b6001600160a01b0382166000908152600460205260408120805460019290611fb3908490612793565b909155505060008181526003602052604080822080546001600160a01b0319166001600160a01b03861690811790915590518392907fddf252ad1be2c89b69c2b068fc378daa952ba7f163c4a11628f55a4df523b3ef908290a45050565b82805461201d90612604565b90600052602060002090601f01602090048101928261203f5760008555612085565b82601f1061205857805160ff1916838001178555612085565b82800160010185558215612085579182015b8281111561208557825182559160200191906001019061206a565b50612091929150612095565b5090565b5b808211156120915760008155600101612096565b6001600160e01b03198116811461168157600080fd5b6000602082840312156120d257600080fd5b8135611310816120aa565b60005b838110156120f85781810151838201526020016120e0565b838111156108555750506000910152565b600081518084526121218160208601602086016120dd565b601f01601f19169290920160200192915050565b6020815260006113106020830184612109565b60006020828403121561215a57600080fd5b5035919050565b80356001600160a01b038116811461217857600080fd5b919050565b6000806040838503121561219057600080fd5b61219983612161565b946020939093013593505050565b803561ffff8116811461217857600080fd5b803560ff8116811461217857600080fd5b634e487b7160e01b600052604160045260246000fd5b600067ffffffffffffffff808411156121fb576121fb6121ca565b604051601f8501601f19908116603f01168101908282118183101715612223576122236121ca565b8160405280935085815286868601111561223c57600080fd5b858560208301376000602087830101525050509392505050565b600082601f83011261226757600080fd5b611310838335602085016121e0565b6000806000806080858703121561228c57600080fd5b612295856121a7565b93506122a3602086016121b9565b92506122b1604086016121b9565b9150606085013567ffffffffffffffff8111156122cd57600080fd5b6122d987828801612256565b91505092959194509250565b6000806000606084860312156122fa57600080fd5b61230384612161565b925061231160208501612161565b9150604084013590509250925092565b60008060006060848603121561233657600080fd5b61233f846121a7565b925061234d602085016121b9565b915061235b604085016121b9565b90509250925092565b6000806040838503121561237757600080fd5b612380836121b9565b915061238e602084016121a7565b90509250929050565b6000602082840312156123a957600080fd5b813567ffffffffffffffff8111156123c057600080fd5b61089c84828501612256565b6000806000806000608086880312156123e457600080fd5b6123ed866121a7565b94506123fb602087016121b9565b9350612409604087016121b9565b9250606086013567ffffffffffffffff8082111561242657600080fd5b818801915088601f83011261243a57600080fd5b81358181111561244957600080fd5b89602082850101111561245b57600080fd5b9699959850939650602001949392505050565b60006020828403121561248057600080fd5b61131082612161565b61ffff8616815260ff8516602082015260ff8416604082015260ff8316606082015260a0608082015260006124c160a0830184612109565b979650505050505050565b600080604083850312156124df57600080fd5b6124e883612161565b9150602083013580151581146124fd57600080fd5b809150509250929050565b60006020828403121561251a57600080fd5b611310826121a7565b6000806040838503121561253657600080fd5b82359150602083013567ffffffffffffffff81111561255457600080fd5b61256085828601612256565b9150509250929050565b6000806000806080858703121561258057600080fd5b61258985612161565b935061259760208601612161565b925060408501359150606085013567ffffffffffffffff8111156125ba57600080fd5b8501601f810187136125cb57600080fd5b6122d9878235602084016121e0565b600080604083850312156125ed57600080fd5b6125f683612161565b915061238e60208401612161565b600181811c9082168061261857607f821691505b6020821081141561263957634e487b7160e01b600052602260045260246000fd5b50919050565b60208082526010908201526f1d1bdad95b881b9bdd081b5a5b9d195960821b604082015260600190565b60208082526031908201527f4552433732313a207472616e736665722063616c6c6572206973206e6f74206f6040820152701ddb995c881b9bdc88185c1c1c9bdd9959607a1b606082015260800190565b6020808252818101527f4f776e61626c653a2063616c6c6572206973206e6f7420746865206f776e6572604082015260600190565b634e487b7160e01b600052601260045260246000fd5b600082612714576127146126ef565b500690565b600061ffff8084168061272e5761272e6126ef565b92169190910692915050565b6000835161274c8184602088016120dd565b8351908301906127608183602088016120dd565b01949350505050565b634e487b7160e01b600052601160045260246000fd5b60008261278e5761278e6126ef565b500490565b600082198211156127a6576127a6612769565b500190565b6000828210156127bd576127bd612769565b500390565b60008160001904831182151516156127dc576127dc612769565b500290565b86815285602082015261ffff8516604082015260ff8416606082015260ff8316608082015260c060a0820152600061281c60c0830184612109565b98975050505050505050565b60208082526032908201527f4552433732313a207472616e7366657220746f206e6f6e20455243373231526560408201527131b2b4bb32b91034b6b83632b6b2b73a32b960711b606082015260800190565b600060001982141561288e5761288e612769565b5060010190565b634e487b7160e01b600052603260045260246000fd5b6001600160a01b03858116825284166020820152604081018390526080606082018190526000906128de90830184612109565b9695505050505050565b6000602082840312156128fa57600080fd5b8151611310816120aa56fea2646970667358221220844e67ce648aa27589aa1e76484b018852a2c9cb5aae567c4482ef1100dc20f664736f6c634300080b00334552433732313a207472616e7366657220746f206e6f6e20455243373231526552656d656d6265722c2072656d656d6265722c2074686520357468206f66204e6f76656d6265722e417274206973206e657665722066696e69736865642c206f6e6c79206162616e646f6e65642e",
    "sourcePath": "/Users/ilyasuchkov/NFTs/contracts/Date.sol",
    "compiler": {
        "name": "solc",
        "version": "0.8.11+commit.d7f03943"
    },
    "functionHashes": {
        "approve(address,uint256)": "095ea7b3",
        "balanceOf(address)": "70a08231",
        "changeTitleOf(uint16,uint8,uint8,string)": "232f8ecc",
        "changeTitleOf(uint256,string)": "b3a083fa",
        "claim(uint16,uint8,uint8,string)": "5b6f29b7",
        "get(uint256)": "9507d39a",
        "getApproved(uint256)": "081812fc",
        "isApprovedForAll(address,address)": "e985e9c5",
        "isLeapYear(uint16)": "a6f0e577",
        "name()": "06fdde03",
        "numDaysInMonth(uint8,uint16)": "5333f08f",
        "owner()": "8da5cb5b",
        "ownerOf(uint16,uint8,uint8)": "39eac6ab",
        "ownerOf(uint256)": "6352211e",
        "renounceOwnership()": "715018a6",
        "safeTransferFrom(address,address,uint256)": "42842e0e",
        "safeTransferFrom(address,address,uint256,bytes)": "b88d4fde",
        "setApprovalForAll(address,bool)": "a22cb465",
        "setBaseURI(string)": "55f804b3",
        "supportsInterface(bytes4)": "01ffc9a7",
        "symbol()": "95d89b41",
        "timestampToDate(uint256)": "de5101af",
        "titleOf(uint16,uint8,uint8)": "a8c24330",
        "titleOf(uint256)": "daf7c166",
        "tokenURI(uint256)": "c87b56dd",
        "transferFrom(address,address,uint256)": "23b872dd",
        "transferOwnership(address)": "f2fde38b"
    },
    "gasEstimates": {
        "creation": {
            "codeDepositCost": "2111000",
            "executionCost": "infinite",
            "totalCost": "infinite"
        },
        "external": {
            "approve(address,uint256)": "infinite",
            "balanceOf(address)": "2700",
            "changeTitleOf(uint16,uint8,uint8,string)": "infinite",
            "changeTitleOf(uint256,string)": "infinite",
            "claim(uint16,uint8,uint8,string)": "infinite",
            "get(uint256)": "infinite",
            "getApproved(uint256)": "4799",
            "isApprovedForAll(address,address)": "infinite",
            "isLeapYear(uint16)": "infinite",
            "name()": "infinite",
            "numDaysInMonth(uint8,uint16)": "infinite",
            "owner()": "2399",
            "ownerOf(uint16,uint8,uint8)": "infinite",
            "ownerOf(uint256)": "2645",
            "renounceOwnership()": "28160",
            "safeTransferFrom(address,address,uint256)": "infinite",
            "safeTransferFrom(address,address,uint256,bytes)": "infinite",
            "setApprovalForAll(address,bool)": "26753",
            "setBaseURI(string)": "infinite",
            "supportsInterface(bytes4)": "534",
            "symbol()": "infinite",
            "timestampToDate(uint256)": "infinite",
            "titleOf(uint16,uint8,uint8)": "infinite",
            "titleOf(uint256)": "infinite",
            "tokenURI(uint256)": "infinite",
            "transferFrom(address,address,uint256)": "infinite",
            "transferOwnership(address)": "28419"
        },
        "internal": {
            "_baseURI()": "infinite",
            "id(uint16,uint8,uint8)": "infinite",
            "mint(uint16,uint8,uint8,uint8,string memory)": "infinite",
            "pseudoRNG(uint16,uint8,uint8,string memory)": "infinite"
        }
    }
}