{
  "contractName": "Date",
  "abi": [
    {
      "inputs": [],
      "stateMutability": "nonpayable",
      "type": "constructor"
    },
    {
      "anonymous": false,
      "inputs": [
        {
          "indexed": true,
          "internalType": "address",
          "name": "owner",
          "type": "address"
        },
        {
          "indexed": true,
          "internalType": "address",
          "name": "approved",
          "type": "address"
        },
        {
          "indexed": true,
          "internalType": "uint256",
          "name": "tokenId",
          "type": "uint256"
        }
      ],
      "name": "Approval",
      "type": "event"
    },
    {
      "anonymous": false,
      "inputs": [
        {
          "indexed": true,
          "internalType": "address",
          "name": "owner",
          "type": "address"
        },
        {
          "indexed": true,
          "internalType": "address",
          "name": "operator",
          "type": "address"
        },
        {
          "indexed": false,
          "internalType": "bool",
          "name": "approved",
          "type": "bool"
        }
      ],
      "name": "ApprovalForAll",
      "type": "event"
    },
    {
      "anonymous": false,
      "inputs": [
        {
          "indexed": true,
          "internalType": "address",
          "name": "previousOwner",
          "type": "address"
        },
        {
          "indexed": true,
          "internalType": "address",
          "name": "newOwner",
          "type": "address"
        }
      ],
      "name": "OwnershipTransferred",
      "type": "event"
    },
    {
      "anonymous": false,
      "inputs": [
        {
          "indexed": true,
          "internalType": "address",
          "name": "from",
          "type": "address"
        },
        {
          "indexed": true,
          "internalType": "address",
          "name": "to",
          "type": "address"
        },
        {
          "indexed": true,
          "internalType": "uint256",
          "name": "tokenId",
          "type": "uint256"
        }
      ],
      "name": "Transfer",
      "type": "event"
    },
    {
      "inputs": [
        {
          "internalType": "address",
          "name": "to",
          "type": "address"
        },
        {
          "internalType": "uint256",
          "name": "tokenId",
          "type": "uint256"
        }
      ],
      "name": "approve",
      "outputs": [],
      "stateMutability": "nonpayable",
      "type": "function"
    },
    {
      "inputs": [
        {
          "internalType": "address",
          "name": "owner",
          "type": "address"
        }
      ],
      "name": "balanceOf",
      "outputs": [
        {
          "internalType": "uint256",
          "name": "",
          "type": "uint256"
        }
      ],
      "stateMutability": "view",
      "type": "function"
    },
    {
      "inputs": [
        {
          "internalType": "uint256",
          "name": "tokenId",
          "type": "uint256"
        }
      ],
      "name": "getApproved",
      "outputs": [
        {
          "internalType": "address",
          "name": "",
          "type": "address"
        }
      ],
      "stateMutability": "view",
      "type": "function"
    },
    {
      "inputs": [
        {
          "internalType": "address",
          "name": "owner",
          "type": "address"
        },
        {
          "internalType": "address",
          "name": "operator",
          "type": "address"
        }
      ],
      "name": "isApprovedForAll",
      "outputs": [
        {
          "internalType": "bool",
          "name": "",
          "type": "bool"
        }
      ],
      "stateMutability": "view",
      "type": "function"
    },
    {
      "inputs": [],
      "name": "name",
      "outputs": [
        {
          "internalType": "string",
          "name": "",
          "type": "string"
        }
      ],
      "stateMutability": "view",
      "type": "function"
    },
    {
      "inputs": [],
      "name": "owner",
      "outputs": [
        {
          "internalType": "address",
          "name": "",
          "type": "address"
        }
      ],
      "stateMutability": "view",
      "type": "function"
    },
    {
      "inputs": [],
      "name": "renounceOwnership",
      "outputs": [],
      "stateMutability": "nonpayable",
      "type": "function"
    },
    {
      "inputs": [
        {
          "internalType": "address",
          "name": "from",
          "type": "address"
        },
        {
          "internalType": "address",
          "name": "to",
          "type": "address"
        },
        {
          "internalType": "uint256",
          "name": "tokenId",
          "type": "uint256"
        }
      ],
      "name": "safeTransferFrom",
      "outputs": [],
      "stateMutability": "nonpayable",
      "type": "function"
    },
    {
      "inputs": [
        {
          "internalType": "address",
          "name": "from",
          "type": "address"
        },
        {
          "internalType": "address",
          "name": "to",
          "type": "address"
        },
        {
          "internalType": "uint256",
          "name": "tokenId",
          "type": "uint256"
        },
        {
          "internalType": "bytes",
          "name": "_data",
          "type": "bytes"
        }
      ],
      "name": "safeTransferFrom",
      "outputs": [],
      "stateMutability": "nonpayable",
      "type": "function"
    },
    {
      "inputs": [
        {
          "internalType": "address",
          "name": "operator",
          "type": "address"
        },
        {
          "internalType": "bool",
          "name": "approved",
          "type": "bool"
        }
      ],
      "name": "setApprovalForAll",
      "outputs": [],
      "stateMutability": "nonpayable",
      "type": "function"
    },
    {
      "inputs": [
        {
          "internalType": "bytes4",
          "name": "interfaceId",
          "type": "bytes4"
        }
      ],
      "name": "supportsInterface",
      "outputs": [
        {
          "internalType": "bool",
          "name": "",
          "type": "bool"
        }
      ],
      "stateMutability": "view",
      "type": "function"
    },
    {
      "inputs": [],
      "name": "symbol",
      "outputs": [
        {
          "internalType": "string",
          "name": "",
          "type": "string"
        }
      ],
      "stateMutability": "view",
      "type": "function"
    },
    {
      "inputs": [
        {
          "internalType": "uint256",
          "name": "tokenId",
          "type": "uint256"
        }
      ],
      "name": "tokenURI",
      "outputs": [
        {
          "internalType": "string",
          "name": "",
          "type": "string"
        }
      ],
      "stateMutability": "view",
      "type": "function"
    },
    {
      "inputs": [
        {
          "internalType": "address",
          "name": "from",
          "type": "address"
        },
        {
          "internalType": "address",
          "name": "to",
          "type": "address"
        },
        {
          "internalType": "uint256",
          "name": "tokenId",
          "type": "uint256"
        }
      ],
      "name": "transferFrom",
      "outputs": [],
      "stateMutability": "nonpayable",
      "type": "function"
    },
    {
      "inputs": [
        {
          "internalType": "address",
          "name": "newOwner",
          "type": "address"
        }
      ],
      "name": "transferOwnership",
      "outputs": [],
      "stateMutability": "nonpayable",
      "type": "function"
    },
    {
      "inputs": [
        {
          "internalType": "string",
          "name": "baseURI",
          "type": "string"
        }
      ],
      "name": "setBaseURI",
      "outputs": [],
      "stateMutability": "nonpayable",
      "type": "function"
    },
    {
      "inputs": [
        {
          "internalType": "uint16",
          "name": "year",
          "type": "uint16"
        },
        {
          "internalType": "uint8",
          "name": "month",
          "type": "uint8"
        },
        {
          "internalType": "uint8",
          "name": "day",
          "type": "uint8"
        },
        {
          "internalType": "string",
          "name": "title",
          "type": "string"
        }
      ],
      "name": "claim",
      "outputs": [],
      "stateMutability": "payable",
      "type": "function"
    },
    {
      "inputs": [
        {
          "internalType": "uint16",
          "name": "year",
          "type": "uint16"
        },
        {
          "internalType": "uint8",
          "name": "month",
          "type": "uint8"
        },
        {
          "internalType": "uint8",
          "name": "day",
          "type": "uint8"
        }
      ],
      "name": "ownerOf",
      "outputs": [
        {
          "internalType": "address",
          "name": "",
          "type": "address"
        }
      ],
      "stateMutability": "view",
      "type": "function"
    },
    {
      "inputs": [
        {
          "internalType": "uint256",
          "name": "tokenId",
          "type": "uint256"
        }
      ],
      "name": "ownerOf",
      "outputs": [
        {
          "internalType": "address",
          "name": "",
          "type": "address"
        }
      ],
      "stateMutability": "view",
      "type": "function"
    },
    {
      "inputs": [
        {
          "internalType": "uint256",
          "name": "tokenId",
          "type": "uint256"
        }
      ],
      "name": "get",
      "outputs": [
        {
          "internalType": "uint16",
          "name": "year",
          "type": "uint16"
        },
        {
          "internalType": "uint8",
          "name": "month",
          "type": "uint8"
        },
        {
          "internalType": "uint8",
          "name": "day",
          "type": "uint8"
        },
        {
          "internalType": "uint8",
          "name": "color",
          "type": "uint8"
        },
        {
          "internalType": "string",
          "name": "title",
          "type": "string"
        }
      ],
      "stateMutability": "view",
      "type": "function"
    },
    {
      "inputs": [
        {
          "internalType": "uint16",
          "name": "year",
          "type": "uint16"
        },
        {
          "internalType": "uint8",
          "name": "month",
          "type": "uint8"
        },
        {
          "internalType": "uint8",
          "name": "day",
          "type": "uint8"
        }
      ],
      "name": "titleOf",
      "outputs": [
        {
          "internalType": "string",
          "name": "",
          "type": "string"
        }
      ],
      "stateMutability": "view",
      "type": "function"
    },
    {
      "inputs": [
        {
          "internalType": "uint256",
          "name": "tokenId",
          "type": "uint256"
        }
      ],
      "name": "titleOf",
      "outputs": [
        {
          "internalType": "string",
          "name": "",
          "type": "string"
        }
      ],
      "stateMutability": "view",
      "type": "function"
    },
    {
      "inputs": [
        {
          "internalType": "uint16",
          "name": "year",
          "type": "uint16"
        },
        {
          "internalType": "uint8",
          "name": "month",
          "type": "uint8"
        },
        {
          "internalType": "uint8",
          "name": "day",
          "type": "uint8"
        },
        {
          "internalType": "string",
          "name": "title",
          "type": "string"
        }
      ],
      "name": "changeTitleOf",
      "outputs": [],
      "stateMutability": "nonpayable",
      "type": "function"
    },
    {
      "inputs": [
        {
          "internalType": "uint256",
          "name": "tokenId",
          "type": "uint256"
        },
        {
          "internalType": "string",
          "name": "title",
          "type": "string"
        }
      ],
      "name": "changeTitleOf",
      "outputs": [],
      "stateMutability": "nonpayable",
      "type": "function"
    },
    {
      "inputs": [
        {
          "internalType": "uint16",
          "name": "year",
          "type": "uint16"
        }
      ],
      "name": "isLeapYear",
      "outputs": [
        {
          "internalType": "bool",
          "name": "",
          "type": "bool"
        }
      ],
      "stateMutability": "pure",
      "type": "function"
    },
    {
      "inputs": [
        {
          "internalType": "uint8",
          "name": "month",
          "type": "uint8"
        },
        {
          "internalType": "uint16",
          "name": "year",
          "type": "uint16"
        }
      ],
      "name": "numDaysInMonth",
      "outputs": [
        {
          "internalType": "uint8",
          "name": "",
          "type": "uint8"
        }
      ],
      "stateMutability": "pure",
      "type": "function"
    },
    {
      "inputs": [
        {
          "internalType": "uint256",
          "name": "timestamp",
          "type": "uint256"
        }
      ],
      "name": "timestampToDate",
      "outputs": [
        {
          "internalType": "uint16",
          "name": "year",
          "type": "uint16"
        },
        {
          "internalType": "uint8",
          "name": "month",
          "type": "uint8"
        },
        {
          "internalType": "uint8",
          "name": "day",
          "type": "uint8"
        }
      ],
      "stateMutability": "pure",
      "type": "function"
    }
  ],
  "bytecode": "0x60806040523480156200001157600080fd5b506040518060400160405280600481526020017f44617465000000000000000000000000000000000000000000000000000000008152506040518060400160405280600481526020017f44415445000000000000000000000000000000000000000000000000000000008152506200009e62000092620003c660201b60201c565b620003ce60201b60201c565b8160019080519060200190620000b69291906200101a565b508060029080519060200190620000cf9291906200101a565b505050620001186040518060400160405280601781526020017f68747470733a2f2f6c6f63616c686f73742f746f6b656e0000000000000000008152506200049260201b60201c565b62000165600180600160046040518060400160405280600681526020017f4f524947494e00000000000000000000000000000000000000000000000000008152506200053d60201b60201c565b60008060006200017b426200065d60201b60201c565b925092509250620001cc83838360046040518060400160405280601081526020017f4461746520546f6b656e205374617274000000000000000000000000000000008152506200053d60201b60201c565b6200021b6107df6007601e60066040518060400160405280600b81526020017f4554482047454e455349530000000000000000000000000000000000000000008152506200053d60201b60201c565b6200024e6105ac6004600f600560405180606001604052806026815260200162005f3d602691396200053d60201b60201c565b62000281610645600b6005600160405180606001604052806028815260200162005f15602891396200053d60201b60201c565b620002d061061c6004601760026040518060400160405280601381526020017f546f2062652c206f72206e6f7420746f206265000000000000000000000000008152506200053d60201b60201c565b6200031f6107b16007601460036040518060400160405280601681526020017f4f6e6520736d616c6c207374657020666f72206d616e000000000000000000008152506200053d60201b60201c565b6200036e6107c26006600c60006040518060400160405280600381526020017f43424400000000000000000000000000000000000000000000000000000000008152506200053d60201b60201c565b620003bd6107b36006601c60076040518060400160405280600f81526020017f456c6f6e277320426972746864617900000000000000000000000000000000008152506200053d60201b60201c565b505050620017d3565b600033905090565b60008060009054906101000a900473ffffffffffffffffffffffffffffffffffffffff169050816000806101000a81548173ffffffffffffffffffffffffffffffffffffffff021916908373ffffffffffffffffffffffffffffffffffffffff1602179055508173ffffffffffffffffffffffffffffffffffffffff168173ffffffffffffffffffffffffffffffffffffffff167f8be0079c531659141344cd1fd0a4f28419497f9722a3daafe3b4186f6b6457e060405160405180910390a35050565b620004a2620003c660201b60201c565b73ffffffffffffffffffffffffffffffffffffffff16620004c86200089960201b60201c565b73ffffffffffffffffffffffffffffffffffffffff161462000521576040517f08c379a000000000000000000000000000000000000000000000000000000000815260040162000518906200112b565b60405180910390fd5b8060089080519060200190620005399291906200101a565b5050565b600062000552868686620008c260201b60201c565b90506040518060a001604052808761ffff1681526020018660ff1681526020018560ff1681526020018460ff168152602001838152506007600083815260200190815260200160002060008201518160000160006101000a81548161ffff021916908361ffff16021790555060208201518160000160026101000a81548160ff021916908360ff16021790555060408201518160000160036101000a81548160ff021916908360ff16021790555060608201518160000160046101000a81548160ff021916908360ff16021790555060808201518160010190805190602001906200063f9291906200101a565b509050506200065533826200096f60201b60201c565b505050505050565b600080600080620afa6c6201518086620006789190620011b5565b620006849190620011ed565b9050600062023ab16000831015620006ad5762023ab083620006a791906200124a565b620006af565b825b620006bb9190620011b5565b9050600062023ab182620006d0919062001285565b83620006dd91906200124a565b9050600061016d62023ab083620006f59190620011b5565b618eac84620007059190620011b5565b6105b485620007159190620011b5565b856200072291906200124a565b6200072e9190620011ed565b6200073a91906200124a565b620007469190620011b5565b90506000606482620007599190620011b5565b600483620007689190620011b5565b8361016d62000778919062001285565b620007849190620011ed565b6200079091906200124a565b836200079d91906200124a565b9050600060996002836005620007b4919062001285565b620007c09190620011ed565b620007cc9190620011b5565b9050600160056002836099620007e3919062001285565b620007ef9190620011ed565b620007fb9190620011b5565b836200080891906200124a565b620008149190620011ed565b9650600a811062000834576009816200082e91906200124a565b62000844565b600381620008439190620011ed565b5b975060028860ff1611156200085b5760006200085e565b60015b60ff166101908662000871919062001285565b846200087e9190620011ed565b6200088a9190620011ed565b98505050505050509193909250565b60008060009054906101000a900473ffffffffffffffffffffffffffffffffffffffff16905090565b60008160ff16600111158015620008f05750620008e683856200099560201b60201c565b60ff168260ff1611155b620008fa57600080fd5b60018260ff16601f60018660ff166200091491906200124a565b62000920919062001285565b61017460018861ffff166200093691906200124a565b62000942919062001285565b6200094e9190620011ed565b6200095a9190620011ed565b6200096691906200124a565b90509392505050565b6200099182826040518060200160405280600081525062000aef60201b60201c565b5050565b60008260ff16600111158015620009b05750600c8360ff1611155b620009f2576040517f08c379a0000000000000000000000000000000000000000000000000000000008152600401620009e99062001336565b60405180910390fd5b8161ffff166001111562000a3d576040517f08c379a000000000000000000000000000000000000000000000000000000000815260040162000a3490620013a8565b60405180910390fd5b60018360ff16148062000a53575060038360ff16145b8062000a62575060058360ff16145b8062000a71575060078360ff16145b8062000a80575060088360ff16145b8062000a8f5750600a8360ff16145b8062000a9e5750600c8360ff16145b1562000aae57601f905062000ae9565b60028360ff16141562000ae45762000acc8262000b5d60201b60201c565b62000ad957601c62000adc565b601d5b905062000ae9565b601e90505b92915050565b62000b01838362000c0660201b60201c565b62000b16600084848462000dec60201b60201c565b62000b58576040517f08c379a000000000000000000000000000000000000000000000000000000000815260040162000b4f9062001440565b60405180910390fd5b505050565b60008161ffff166001111562000baa576040517f08c379a000000000000000000000000000000000000000000000000000000000815260040162000ba190620013a8565b60405180910390fd5b600060048362000bbb919062001470565b61ffff1614801562000bdf5750600060648362000bd9919062001470565b61ffff16145b801562000bff575060006101908362000bf9919062001470565b61ffff16145b9050919050565b600073ffffffffffffffffffffffffffffffffffffffff168273ffffffffffffffffffffffffffffffffffffffff16141562000c79576040517f08c379a000000000000000000000000000000000000000000000000000000000815260040162000c7090620014f8565b60405180910390fd5b62000c8a8162000f9660201b60201c565b1562000ccd576040517f08c379a000000000000000000000000000000000000000000000000000000000815260040162000cc4906200156a565b60405180910390fd5b62000ce1600083836200100260201b60201c565b6001600460008473ffffffffffffffffffffffffffffffffffffffff1673ffffffffffffffffffffffffffffffffffffffff168152602001908152602001600020600082825462000d339190620011ed565b92505081905550816003600083815260200190815260200160002060006101000a81548173ffffffffffffffffffffffffffffffffffffffff021916908373ffffffffffffffffffffffffffffffffffffffff160217905550808273ffffffffffffffffffffffffffffffffffffffff16600073ffffffffffffffffffffffffffffffffffffffff167fddf252ad1be2c89b69c2b068fc378daa952ba7f163c4a11628f55a4df523b3ef60405160405180910390a45050565b600062000e1a8473ffffffffffffffffffffffffffffffffffffffff166200100760201b62001d181760201c565b1562000f89578373ffffffffffffffffffffffffffffffffffffffff1663150b7a0262000e4c620003c660201b60201c565b8786866040518563ffffffff1660e01b815260040162000e70949392919062001686565b6020604051808303816000875af192505050801562000eaf57506040513d601f19601f8201168201806040525081019062000eac91906200173c565b60015b62000f38573d806000811462000ee2576040519150601f19603f3d011682016040523d82523d6000602084013e62000ee7565b606091505b5060008151141562000f30576040517f08c379a000000000000000000000000000000000000000000000000000000000815260040162000f279062001440565b60405180910390fd5b805181602001fd5b63150b7a0260e01b7bffffffffffffffffffffffffffffffffffffffffffffffffffffffff1916817bffffffffffffffffffffffffffffffffffffffffffffffffffffffff19161491505062000f8e565b600190505b949350505050565b60008073ffffffffffffffffffffffffffffffffffffffff166003600084815260200190815260200160002060009054906101000a900473ffffffffffffffffffffffffffffffffffffffff1673ffffffffffffffffffffffffffffffffffffffff1614159050919050565b505050565b600080823b905060008111915050919050565b82805462001028906200179d565b90600052602060002090601f0160209004810192826200104c576000855562001098565b82601f106200106757805160ff191683800117855562001098565b8280016001018555821562001098579182015b82811115620010975782518255916020019190600101906200107a565b5b509050620010a79190620010ab565b5090565b5b80821115620010c6576000816000905550600101620010ac565b5090565b600082825260208201905092915050565b7f4f776e61626c653a2063616c6c6572206973206e6f7420746865206f776e6572600082015250565b600062001113602083620010ca565b91506200112082620010db565b602082019050919050565b60006020820190508181036000830152620011468162001104565b9050919050565b6000819050919050565b7f4e487b7100000000000000000000000000000000000000000000000000000000600052601260045260246000fd5b7f4e487b7100000000000000000000000000000000000000000000000000000000600052601160045260246000fd5b6000620011c2826200114d565b9150620011cf836200114d565b925082620011e257620011e162001157565b5b828204905092915050565b6000620011fa826200114d565b915062001207836200114d565b9250827fffffffffffffffffffffffffffffffffffffffffffffffffffffffffffffffff038211156200123f576200123e62001186565b5b828201905092915050565b600062001257826200114d565b915062001264836200114d565b9250828210156200127a576200127962001186565b5b828203905092915050565b600062001292826200114d565b91506200129f836200114d565b9250817fffffffffffffffffffffffffffffffffffffffffffffffffffffffffffffffff0483118215151615620012db57620012da62001186565b5b828202905092915050565b7f6d6f6e7468206d757374206265206265747765656e203120616e642031320000600082015250565b60006200131e601e83620010ca565b91506200132b82620012e6565b602082019050919050565b6000602082019050818103600083015262001351816200130f565b9050919050565b7f79656172206d75737420626520626967676572206f7220657175616c20310000600082015250565b600062001390601e83620010ca565b91506200139d8262001358565b602082019050919050565b60006020820190508181036000830152620013c38162001381565b9050919050565b7f4552433732313a207472616e7366657220746f206e6f6e20455243373231526560008201527f63656976657220696d706c656d656e7465720000000000000000000000000000602082015250565b600062001428603283620010ca565b91506200143582620013ca565b604082019050919050565b600060208201905081810360008301526200145b8162001419565b9050919050565b600061ffff82169050919050565b60006200147d8262001462565b91506200148a8362001462565b9250826200149d576200149c62001157565b5b828206905092915050565b7f4552433732313a206d696e7420746f20746865207a65726f2061646472657373600082015250565b6000620014e0602083620010ca565b9150620014ed82620014a8565b602082019050919050565b600060208201905081810360008301526200151381620014d1565b9050919050565b7f4552433732313a20746f6b656e20616c7265616479206d696e74656400000000600082015250565b600062001552601c83620010ca565b91506200155f826200151a565b602082019050919050565b60006020820190508181036000830152620015858162001543565b9050919050565b600073ffffffffffffffffffffffffffffffffffffffff82169050919050565b6000620015b9826200158c565b9050919050565b620015cb81620015ac565b82525050565b620015dc816200114d565b82525050565b600081519050919050565b600082825260208201905092915050565b60005b838110156200161e57808201518184015260208101905062001601565b838111156200162e576000848401525b50505050565b6000601f19601f8301169050919050565b60006200165282620015e2565b6200165e8185620015ed565b935062001670818560208601620015fe565b6200167b8162001634565b840191505092915050565b60006080820190506200169d6000830187620015c0565b620016ac6020830186620015c0565b620016bb6040830185620015d1565b8181036060830152620016cf818462001645565b905095945050505050565b600080fd5b60007fffffffff0000000000000000000000000000000000000000000000000000000082169050919050565b6200171681620016df565b81146200172257600080fd5b50565b60008151905062001736816200170b565b92915050565b600060208284031215620017555762001754620016da565b5b6000620017658482850162001725565b91505092915050565b7f4e487b7100000000000000000000000000000000000000000000000000000000600052602260045260246000fd5b60006002820490506001821680620017b657607f821691505b60208210811415620017cd57620017cc6200176e565b5b50919050565b61473280620017e36000396000f3fe60806040526004361061019c5760003560e01c8063715018a6116100ec578063b3a083fa1161008a578063daf7c16611610064578063daf7c16614610603578063de5101af14610640578063e985e9c51461067f578063f2fde38b146106bc5761019c565b8063b3a083fa14610574578063b88d4fde1461059d578063c87b56dd146105c65761019c565b806395d89b41116100c657806395d89b41146104a6578063a22cb465146104d1578063a6f0e577146104fa578063a8c24330146105375761019c565b8063715018a6146104235780638da5cb5b1461043a5780639507d39a146104655761019c565b806339eac6ab1161015957806355f804b31161013357806355f804b3146103645780635b6f29b71461038d5780636352211e146103a957806370a08231146103e65761019c565b806339eac6ab146102c157806342842e0e146102fe5780635333f08f146103275761019c565b806301ffc9a7146101a157806306fdde03146101de578063081812fc14610209578063095ea7b314610246578063232f8ecc1461026f57806323b872dd14610298575b600080fd5b3480156101ad57600080fd5b506101c860048036038101906101c39190612d42565b6106e5565b6040516101d59190612d8a565b60405180910390f35b3480156101ea57600080fd5b506101f36107c7565b6040516102009190612e3e565b60405180910390f35b34801561021557600080fd5b50610230600480360381019061022b9190612e96565b610859565b60405161023d9190612f04565b60405180910390f35b34801561025257600080fd5b5061026d60048036038101906102689190612f4b565b6108de565b005b34801561027b57600080fd5b5061029660048036038101906102919190613133565b6109f6565b005b3480156102a457600080fd5b506102bf60048036038101906102ba91906131b6565b610a62565b005b3480156102cd57600080fd5b506102e860048036038101906102e39190613209565b610ac2565b6040516102f59190612f04565b60405180910390f35b34801561030a57600080fd5b50610325600480360381019061032091906131b6565b610ae0565b005b34801561033357600080fd5b5061034e6004803603810190610349919061325c565b610b00565b60405161035b91906132ab565b60405180910390f35b34801561037057600080fd5b5061038b600480360381019061038691906132c6565b610c3f565b005b6103a760048036038101906103a2919061336f565b610cd5565b005b3480156103b557600080fd5b506103d060048036038101906103cb9190612e96565b610f7d565b6040516103dd9190612f04565b60405180910390f35b3480156103f257600080fd5b5061040d600480360381019061040891906133f7565b61102f565b60405161041a9190613433565b60405180910390f35b34801561042f57600080fd5b506104386110e7565b005b34801561044657600080fd5b5061044f61116f565b60405161045c9190612f04565b60405180910390f35b34801561047157600080fd5b5061048c60048036038101906104879190612e96565b611198565b60405161049d95949392919061345d565b60405180910390f35b3480156104b257600080fd5b506104bb611340565b6040516104c89190612e3e565b60405180910390f35b3480156104dd57600080fd5b506104f860048036038101906104f391906134e3565b6113d2565b005b34801561050657600080fd5b50610521600480360381019061051c9190613523565b6113e8565b60405161052e9190612d8a565b60405180910390f35b34801561054357600080fd5b5061055e60048036038101906105599190613209565b611486565b60405161056b9190612e3e565b60405180910390f35b34801561058057600080fd5b5061059b60048036038101906105969190613550565b61161e565b005b3480156105a957600080fd5b506105c460048036038101906105bf919061364d565b61170b565b005b3480156105d257600080fd5b506105ed60048036038101906105e89190612e96565b61176d565b6040516105fa9190612e3e565b60405180910390f35b34801561060f57600080fd5b5061062a60048036038101906106259190612e96565b611814565b6040516106379190612e3e565b60405180910390f35b34801561064c57600080fd5b5061066760048036038101906106629190612e96565b611996565b604051610676939291906136d0565b60405180910390f35b34801561068b57600080fd5b506106a660048036038101906106a19190613707565b611b8c565b6040516106b39190612d8a565b60405180910390f35b3480156106c857600080fd5b506106e360048036038101906106de91906133f7565b611c20565b005b60007f80ac58cd000000000000000000000000000000000000000000000000000000007bffffffffffffffffffffffffffffffffffffffffffffffffffffffff1916827bffffffffffffffffffffffffffffffffffffffffffffffffffffffff191614806107b057507f5b5e139f000000000000000000000000000000000000000000000000000000007bffffffffffffffffffffffffffffffffffffffffffffffffffffffff1916827bffffffffffffffffffffffffffffffffffffffffffffffffffffffff1916145b806107c057506107bf82611d2b565b5b9050919050565b6060600180546107d690613776565b80601f016020809104026020016040519081016040528092919081815260200182805461080290613776565b801561084f5780601f106108245761010080835404028352916020019161084f565b820191906000526020600020905b81548152906001019060200180831161083257829003601f168201915b5050505050905090565b600061086482611d95565b6108a3576040517f08c379a000000000000000000000000000000000000000000000000000000000815260040161089a9061381a565b60405180910390fd5b6005600083815260200190815260200160002060009054906101000a900473ffffffffffffffffffffffffffffffffffffffff169050919050565b60006108e982610f7d565b90508073ffffffffffffffffffffffffffffffffffffffff168373ffffffffffffffffffffffffffffffffffffffff16141561095a576040517f08c379a0000000000000000000000000000000000000000000000000000000008152600401610951906138ac565b60405180910390fd5b8073ffffffffffffffffffffffffffffffffffffffff16610979611e01565b73ffffffffffffffffffffffffffffffffffffffff1614806109a857506109a7816109a2611e01565b611b8c565b5b6109e7576040517f08c379a00000000000000000000000000000000000000000000000000000000081526004016109de9061393e565b60405180910390fd5b6109f18383611e09565b505050565b610a09610a04858585611ec2565b611d95565b610a48576040517f08c379a0000000000000000000000000000000000000000000000000000000008152600401610a3f906139aa565b60405180910390fd5b610a5c610a56858585611ec2565b8261161e565b50505050565b610a73610a6d611e01565b82611f57565b610ab2576040517f08c379a0000000000000000000000000000000000000000000000000000000008152600401610aa990613a3c565b60405180910390fd5b610abd838383612035565b505050565b6000610ad7610ad2858585611ec2565b610f7d565b90509392505050565b610afb8383836040518060200160405280600081525061170b565b505050565b60008260ff16600111158015610b1a5750600c8360ff1611155b610b59576040517f08c379a0000000000000000000000000000000000000000000000000000000008152600401610b5090613aa8565b60405180910390fd5b8161ffff1660011115610ba1576040517f08c379a0000000000000000000000000000000000000000000000000000000008152600401610b9890613b14565b60405180910390fd5b60018360ff161480610bb6575060038360ff16145b80610bc4575060058360ff16145b80610bd2575060078360ff16145b80610be0575060088360ff16145b80610bee5750600a8360ff16145b80610bfc5750600c8360ff16145b15610c0a57601f9050610c39565b60028360ff161415610c3457610c1f826113e8565b610c2a57601c610c2d565b601d5b9050610c39565b601e90505b92915050565b610c47611e01565b73ffffffffffffffffffffffffffffffffffffffff16610c6561116f565b73ffffffffffffffffffffffffffffffffffffffff1614610cbb576040517f08c379a0000000000000000000000000000000000000000000000000000000008152600401610cb290613b80565b60405180910390fd5b8060089080519060200190610cd1929190612c33565b5050565b662386f26fc100003414610d1e576040517f08c379a0000000000000000000000000000000000000000000000000000000008152600401610d1590613bec565b60405180910390fd5b6000806000610d2c42611996565b9250925092508261ffff168861ffff161180610d6057508261ffff168861ffff16148015610d5f57508160ff168760ff16115b5b80610d9457508261ffff168861ffff16148015610d8257508160ff168760ff16145b8015610d9357508060ff168660ff16115b5b15610dd4576040517f08c379a0000000000000000000000000000000000000000000000000000000008152600401610dcb90613c7e565b60405180910390fd5b600080620f4240610e2b8b8b8b8b8b8080601f016020809104026020016040519081016040528093929190818152602001838380828437600081840152601f19601f82011690508083019250505050505050612291565b610e359190613ccd565b90506103e8811015610e4a5760079150610ecb565b611770811015610e5d5760069150610eca565b613e80811015610e705760059150610ec9565b620101d0811015610e845760049150610ec8565b62028870811015610e985760039150610ec7565b620595b0811015610eac5760029150610ec6565b620a2990811015610ec05760019150610ec5565b600091505b5b5b5b5b5b5b610f1c8a8a8a858b8b8080601f016020809104026020016040519081016040528093929190818152602001838380828437600081840152601f19601f820116905080830192505050505050506122d1565b610f2461116f565b73ffffffffffffffffffffffffffffffffffffffff166108fc662386f26fc100009081150290604051600060405180830381858888f19350505050158015610f70573d6000803e3d6000fd5b5050505050505050505050565b6000806003600084815260200190815260200160002060009054906101000a900473ffffffffffffffffffffffffffffffffffffffff169050600073ffffffffffffffffffffffffffffffffffffffff168173ffffffffffffffffffffffffffffffffffffffff161415611026576040517f08c379a000000000000000000000000000000000000000000000000000000000815260040161101d90613d70565b60405180910390fd5b80915050919050565b60008073ffffffffffffffffffffffffffffffffffffffff168273ffffffffffffffffffffffffffffffffffffffff1614156110a0576040517f08c379a000000000000000000000000000000000000000000000000000000000815260040161109790613e02565b60405180910390fd5b600460008373ffffffffffffffffffffffffffffffffffffffff1673ffffffffffffffffffffffffffffffffffffffff168152602001908152602001600020549050919050565b6110ef611e01565b73ffffffffffffffffffffffffffffffffffffffff1661110d61116f565b73ffffffffffffffffffffffffffffffffffffffff1614611163576040517f08c379a000000000000000000000000000000000000000000000000000000000815260040161115a90613b80565b60405180910390fd5b61116d60006123df565b565b60008060009054906101000a900473ffffffffffffffffffffffffffffffffffffffff16905090565b60008060008060606111a986611d95565b6111e8576040517f08c379a00000000000000000000000000000000000000000000000000000000081526004016111df906139aa565b60405180910390fd5b6000600760008881526020019081526020016000206040518060a00160405290816000820160009054906101000a900461ffff1661ffff1661ffff1681526020016000820160029054906101000a900460ff1660ff1660ff1681526020016000820160039054906101000a900460ff1660ff1660ff1681526020016000820160049054906101000a900460ff1660ff1660ff16815260200160018201805461128f90613776565b80601f01602080910402602001604051908101604052809291908181526020018280546112bb90613776565b80156113085780601f106112dd57610100808354040283529160200191611308565b820191906000526020600020905b8154815290600101906020018083116112eb57829003601f168201915b505050505081525050905080600001519550806020015194508060400151935080606001519250806080015191505091939590929450565b60606002805461134f90613776565b80601f016020809104026020016040519081016040528092919081815260200182805461137b90613776565b80156113c85780601f1061139d576101008083540402835291602001916113c8565b820191906000526020600020905b8154815290600101906020018083116113ab57829003601f168201915b5050505050905090565b6113e46113dd611e01565b83836124a3565b5050565b60008161ffff1660011115611432576040517f08c379a000000000000000000000000000000000000000000000000000000000815260040161142990613b14565b60405180910390fd5b60006004836114419190613e22565b61ffff161480156114625750600060648361145c9190613e22565b61ffff16145b801561147f57506000610190836114799190613e22565b61ffff16145b9050919050565b606061149b611496858585611ec2565b611d95565b6114da576040517f08c379a00000000000000000000000000000000000000000000000000000000081526004016114d1906139aa565b60405180910390fd5b6000600760006114eb878787611ec2565b81526020019081526020016000206040518060a00160405290816000820160009054906101000a900461ffff1661ffff1661ffff1681526020016000820160029054906101000a900460ff1660ff1660ff1681526020016000820160039054906101000a900460ff1660ff1660ff1681526020016000820160049054906101000a900460ff1660ff1660ff16815260200160018201805461158b90613776565b80601f01602080910402602001604051908101604052809291908181526020018280546115b790613776565b80156116045780601f106115d957610100808354040283529160200191611604565b820191906000526020600020905b8154815290600101906020018083116115e757829003601f168201915b505050505081525050905080608001519150509392505050565b61162782611d95565b611666576040517f08c379a000000000000000000000000000000000000000000000000000000000815260040161165d906139aa565b60405180910390fd5b3373ffffffffffffffffffffffffffffffffffffffff1661168683610f7d565b73ffffffffffffffffffffffffffffffffffffffff16146116dc576040517f08c379a00000000000000000000000000000000000000000000000000000000081526004016116d390613ec5565b60405180910390fd5b80600760008481526020019081526020016000206001019080519060200190611706929190612c33565b505050565b61171c611716611e01565b83611f57565b61175b576040517f08c379a000000000000000000000000000000000000000000000000000000000815260040161175290613a3c565b60405180910390fd5b61176784848484612610565b50505050565b606061177882611d95565b6117b7576040517f08c379a00000000000000000000000000000000000000000000000000000000081526004016117ae90613f57565b60405180910390fd5b60006117c161266c565b905060008151116117e1576040518060200160405280600081525061180c565b806117eb846126fe565b6040516020016117fc929190613fb3565b6040516020818303038152906040525b915050919050565b606061181f82611d95565b61185e576040517f08c379a0000000000000000000000000000000000000000000000000000000008152600401611855906139aa565b60405180910390fd5b6000600760008481526020019081526020016000206040518060a00160405290816000820160009054906101000a900461ffff1661ffff1661ffff1681526020016000820160029054906101000a900460ff1660ff1660ff1681526020016000820160039054906101000a900460ff1660ff1660ff1681526020016000820160049054906101000a900460ff1660ff1660ff16815260200160018201805461190590613776565b80601f016020809104026020016040519081016040528092919081815260200182805461193190613776565b801561197e5780601f106119535761010080835404028352916020019161197e565b820191906000526020600020905b81548152906001019060200180831161196157829003601f168201915b50505050508152505090508060800151915050919050565b600080600080620afa6c62015180866119af9190614006565b6119b99190614037565b9050600062023ab160008310156119de5762023ab0836119d9919061408d565b6119e0565b825b6119ea9190614006565b9050600062023ab1826119fd91906140c1565b83611a08919061408d565b9050600061016d62023ab083611a1e9190614006565b618eac84611a2c9190614006565b6105b485611a3a9190614006565b85611a45919061408d565b611a4f9190614037565b611a59919061408d565b611a639190614006565b90506000606482611a749190614006565b600483611a819190614006565b8361016d611a8f91906140c1565b611a999190614037565b611aa3919061408d565b83611aae919061408d565b9050600060996002836005611ac391906140c1565b611acd9190614037565b611ad79190614006565b9050600160056002836099611aec91906140c1565b611af69190614037565b611b009190614006565b83611b0b919061408d565b611b159190614037565b9650600a8110611b3157600981611b2c919061408d565b611b3f565b600381611b3e9190614037565b5b975060028860ff161115611b54576000611b57565b60015b60ff1661019086611b6891906140c1565b84611b739190614037565b611b7d9190614037565b98505050505050509193909250565b6000600660008473ffffffffffffffffffffffffffffffffffffffff1673ffffffffffffffffffffffffffffffffffffffff16815260200190815260200160002060008373ffffffffffffffffffffffffffffffffffffffff1673ffffffffffffffffffffffffffffffffffffffff16815260200190815260200160002060009054906101000a900460ff16905092915050565b611c28611e01565b73ffffffffffffffffffffffffffffffffffffffff16611c4661116f565b73ffffffffffffffffffffffffffffffffffffffff1614611c9c576040517f08c379a0000000000000000000000000000000000000000000000000000000008152600401611c9390613b80565b60405180910390fd5b600073ffffffffffffffffffffffffffffffffffffffff168173ffffffffffffffffffffffffffffffffffffffff161415611d0c576040517f08c379a0000000000000000000000000000000000000000000000000000000008152600401611d039061418d565b60405180910390fd5b611d15816123df565b50565b600080823b905060008111915050919050565b60007f01ffc9a7000000000000000000000000000000000000000000000000000000007bffffffffffffffffffffffffffffffffffffffffffffffffffffffff1916827bffffffffffffffffffffffffffffffffffffffffffffffffffffffff1916149050919050565b60008073ffffffffffffffffffffffffffffffffffffffff166003600084815260200190815260200160002060009054906101000a900473ffffffffffffffffffffffffffffffffffffffff1673ffffffffffffffffffffffffffffffffffffffff1614159050919050565b600033905090565b816005600083815260200190815260200160002060006101000a81548173ffffffffffffffffffffffffffffffffffffffff021916908373ffffffffffffffffffffffffffffffffffffffff160217905550808273ffffffffffffffffffffffffffffffffffffffff16611e7c83610f7d565b73ffffffffffffffffffffffffffffffffffffffff167f8c5be1e5ebec7d5bd14f71427d1e84f3dd0314c0f7b2291e5b200ac8c7c3b92560405160405180910390a45050565b60008160ff16600111158015611ee75750611edd8385610b00565b60ff168260ff1611155b611ef057600080fd5b60018260ff16601f60018660ff16611f08919061408d565b611f1291906140c1565b61017460018861ffff16611f26919061408d565b611f3091906140c1565b611f3a9190614037565b611f449190614037565b611f4e919061408d565b90509392505050565b6000611f6282611d95565b611fa1576040517f08c379a0000000000000000000000000000000000000000000000000000000008152600401611f989061421f565b60405180910390fd5b6000611fac83610f7d565b90508073ffffffffffffffffffffffffffffffffffffffff168473ffffffffffffffffffffffffffffffffffffffff16148061201b57508373ffffffffffffffffffffffffffffffffffffffff1661200384610859565b73ffffffffffffffffffffffffffffffffffffffff16145b8061202c575061202b8185611b8c565b5b91505092915050565b8273ffffffffffffffffffffffffffffffffffffffff1661205582610f7d565b73ffffffffffffffffffffffffffffffffffffffff16146120ab576040517f08c379a00000000000000000000000000000000000000000000000000000000081526004016120a2906142b1565b60405180910390fd5b600073ffffffffffffffffffffffffffffffffffffffff168273ffffffffffffffffffffffffffffffffffffffff16141561211b576040517f08c379a000000000000000000000000000000000000000000000000000000000815260040161211290614343565b60405180910390fd5b61212683838361285f565b612131600082611e09565b6001600460008573ffffffffffffffffffffffffffffffffffffffff1673ffffffffffffffffffffffffffffffffffffffff1681526020019081526020016000206000828254612181919061408d565b925050819055506001600460008473ffffffffffffffffffffffffffffffffffffffff1673ffffffffffffffffffffffffffffffffffffffff16815260200190815260200160002060008282546121d89190614037565b92505081905550816003600083815260200190815260200160002060006101000a81548173ffffffffffffffffffffffffffffffffffffffff021916908373ffffffffffffffffffffffffffffffffffffffff160217905550808273ffffffffffffffffffffffffffffffffffffffff168473ffffffffffffffffffffffffffffffffffffffff167fddf252ad1be2c89b69c2b068fc378daa952ba7f163c4a11628f55a4df523b3ef60405160405180910390a4505050565b60004244868686866040516020016122ae96959493929190614363565b6040516020818303038152906040528051906020012060001c9050949350505050565b60006122de868686611ec2565b90506040518060a001604052808761ffff1681526020018660ff1681526020018560ff1681526020018460ff168152602001838152506007600083815260200190815260200160002060008201518160000160006101000a81548161ffff021916908361ffff16021790555060208201518160000160026101000a81548160ff021916908360ff16021790555060408201518160000160036101000a81548160ff021916908360ff16021790555060608201518160000160046101000a81548160ff021916908360ff16021790555060808201518160010190805190602001906123c9929190612c33565b509050506123d73382612864565b505050505050565b60008060009054906101000a900473ffffffffffffffffffffffffffffffffffffffff169050816000806101000a81548173ffffffffffffffffffffffffffffffffffffffff021916908373ffffffffffffffffffffffffffffffffffffffff1602179055508173ffffffffffffffffffffffffffffffffffffffff168173ffffffffffffffffffffffffffffffffffffffff167f8be0079c531659141344cd1fd0a4f28419497f9722a3daafe3b4186f6b6457e060405160405180910390a35050565b8173ffffffffffffffffffffffffffffffffffffffff168373ffffffffffffffffffffffffffffffffffffffff161415612512576040517f08c379a000000000000000000000000000000000000000000000000000000000815260040161250990614417565b60405180910390fd5b80600660008573ffffffffffffffffffffffffffffffffffffffff1673ffffffffffffffffffffffffffffffffffffffff16815260200190815260200160002060008473ffffffffffffffffffffffffffffffffffffffff1673ffffffffffffffffffffffffffffffffffffffff16815260200190815260200160002060006101000a81548160ff0219169083151502179055508173ffffffffffffffffffffffffffffffffffffffff168373ffffffffffffffffffffffffffffffffffffffff167f17307eab39ab6107e8899845ad3d59bd9653f200f220920489ca2b5937696c31836040516126039190612d8a565b60405180910390a3505050565b61261b848484612035565b61262784848484612882565b612666576040517f08c379a000000000000000000000000000000000000000000000000000000000815260040161265d906144a9565b60405180910390fd5b50505050565b60606008805461267b90613776565b80601f01602080910402602001604051908101604052809291908181526020018280546126a790613776565b80156126f45780601f106126c9576101008083540402835291602001916126f4565b820191906000526020600020905b8154815290600101906020018083116126d757829003601f168201915b5050505050905090565b60606000821415612746576040518060400160405280600181526020017f3000000000000000000000000000000000000000000000000000000000000000815250905061285a565b600082905060005b60008214612778578080612761906144c9565b915050600a826127719190614006565b915061274e565b60008167ffffffffffffffff81111561279457612793613008565b5b6040519080825280601f01601f1916602001820160405280156127c65781602001600182028036833780820191505090505b5090505b60008514612853576001826127df919061408d565b9150600a856127ee9190613ccd565b60306127fa9190614037565b60f81b8183815181106128105761280f614512565b5b60200101907effffffffffffffffffffffffffffffffffffffffffffffffffffffffffffff1916908160001a905350600a8561284c9190614006565b94506127ca565b8093505050505b919050565b505050565b61287e828260405180602001604052806000815250612a0a565b5050565b60006128a38473ffffffffffffffffffffffffffffffffffffffff16611d18565b156129fd578373ffffffffffffffffffffffffffffffffffffffff1663150b7a026128cc611e01565b8786866040518563ffffffff1660e01b81526004016128ee9493929190614596565b6020604051808303816000875af192505050801561292a57506040513d601f19601f8201168201806040525081019061292791906145f7565b60015b6129ad573d806000811461295a576040519150601f19603f3d011682016040523d82523d6000602084013e61295f565b606091505b506000815114156129a5576040517f08c379a000000000000000000000000000000000000000000000000000000000815260040161299c906144a9565b60405180910390fd5b805181602001fd5b63150b7a0260e01b7bffffffffffffffffffffffffffffffffffffffffffffffffffffffff1916817bffffffffffffffffffffffffffffffffffffffffffffffffffffffff191614915050612a02565b600190505b949350505050565b612a148383612a65565b612a216000848484612882565b612a60576040517f08c379a0000000000000000000000000000000000000000000000000000000008152600401612a57906144a9565b60405180910390fd5b505050565b600073ffffffffffffffffffffffffffffffffffffffff168273ffffffffffffffffffffffffffffffffffffffff161415612ad5576040517f08c379a0000000000000000000000000000000000000000000000000000000008152600401612acc90614670565b60405180910390fd5b612ade81611d95565b15612b1e576040517f08c379a0000000000000000000000000000000000000000000000000000000008152600401612b15906146dc565b60405180910390fd5b612b2a6000838361285f565b6001600460008473ffffffffffffffffffffffffffffffffffffffff1673ffffffffffffffffffffffffffffffffffffffff1681526020019081526020016000206000828254612b7a9190614037565b92505081905550816003600083815260200190815260200160002060006101000a81548173ffffffffffffffffffffffffffffffffffffffff021916908373ffffffffffffffffffffffffffffffffffffffff160217905550808273ffffffffffffffffffffffffffffffffffffffff16600073ffffffffffffffffffffffffffffffffffffffff167fddf252ad1be2c89b69c2b068fc378daa952ba7f163c4a11628f55a4df523b3ef60405160405180910390a45050565b828054612c3f90613776565b90600052602060002090601f016020900481019282612c615760008555612ca8565b82601f10612c7a57805160ff1916838001178555612ca8565b82800160010185558215612ca8579182015b82811115612ca7578251825591602001919060010190612c8c565b5b509050612cb59190612cb9565b5090565b5b80821115612cd2576000816000905550600101612cba565b5090565b6000604051905090565b600080fd5b600080fd5b60007fffffffff0000000000000000000000000000000000000000000000000000000082169050919050565b612d1f81612cea565b8114612d2a57600080fd5b50565b600081359050612d3c81612d16565b92915050565b600060208284031215612d5857612d57612ce0565b5b6000612d6684828501612d2d565b91505092915050565b60008115159050919050565b612d8481612d6f565b82525050565b6000602082019050612d9f6000830184612d7b565b92915050565b600081519050919050565b600082825260208201905092915050565b60005b83811015612ddf578082015181840152602081019050612dc4565b83811115612dee576000848401525b50505050565b6000601f19601f8301169050919050565b6000612e1082612da5565b612e1a8185612db0565b9350612e2a818560208601612dc1565b612e3381612df4565b840191505092915050565b60006020820190508181036000830152612e588184612e05565b905092915050565b6000819050919050565b612e7381612e60565b8114612e7e57600080fd5b50565b600081359050612e9081612e6a565b92915050565b600060208284031215612eac57612eab612ce0565b5b6000612eba84828501612e81565b91505092915050565b600073ffffffffffffffffffffffffffffffffffffffff82169050919050565b6000612eee82612ec3565b9050919050565b612efe81612ee3565b82525050565b6000602082019050612f196000830184612ef5565b92915050565b612f2881612ee3565b8114612f3357600080fd5b50565b600081359050612f4581612f1f565b92915050565b60008060408385031215612f6257612f61612ce0565b5b6000612f7085828601612f36565b9250506020612f8185828601612e81565b9150509250929050565b600061ffff82169050919050565b612fa281612f8b565b8114612fad57600080fd5b50565b600081359050612fbf81612f99565b92915050565b600060ff82169050919050565b612fdb81612fc5565b8114612fe657600080fd5b50565b600081359050612ff881612fd2565b92915050565b600080fd5b600080fd5b7f4e487b7100000000000000000000000000000000000000000000000000000000600052604160045260246000fd5b61304082612df4565b810181811067ffffffffffffffff8211171561305f5761305e613008565b5b80604052505050565b6000613072612cd6565b905061307e8282613037565b919050565b600067ffffffffffffffff82111561309e5761309d613008565b5b6130a782612df4565b9050602081019050919050565b82818337600083830152505050565b60006130d66130d184613083565b613068565b9050828152602081018484840111156130f2576130f1613003565b5b6130fd8482856130b4565b509392505050565b600082601f83011261311a57613119612ffe565b5b813561312a8482602086016130c3565b91505092915050565b6000806000806080858703121561314d5761314c612ce0565b5b600061315b87828801612fb0565b945050602061316c87828801612fe9565b935050604061317d87828801612fe9565b925050606085013567ffffffffffffffff81111561319e5761319d612ce5565b5b6131aa87828801613105565b91505092959194509250565b6000806000606084860312156131cf576131ce612ce0565b5b60006131dd86828701612f36565b93505060206131ee86828701612f36565b92505060406131ff86828701612e81565b9150509250925092565b60008060006060848603121561322257613221612ce0565b5b600061323086828701612fb0565b935050602061324186828701612fe9565b925050604061325286828701612fe9565b9150509250925092565b6000806040838503121561327357613272612ce0565b5b600061328185828601612fe9565b925050602061329285828601612fb0565b9150509250929050565b6132a581612fc5565b82525050565b60006020820190506132c0600083018461329c565b92915050565b6000602082840312156132dc576132db612ce0565b5b600082013567ffffffffffffffff8111156132fa576132f9612ce5565b5b61330684828501613105565b91505092915050565b600080fd5b600080fd5b60008083601f84011261332f5761332e612ffe565b5b8235905067ffffffffffffffff81111561334c5761334b61330f565b5b60208301915083600182028301111561336857613367613314565b5b9250929050565b60008060008060006080868803121561338b5761338a612ce0565b5b600061339988828901612fb0565b95505060206133aa88828901612fe9565b94505060406133bb88828901612fe9565b935050606086013567ffffffffffffffff8111156133dc576133db612ce5565b5b6133e888828901613319565b92509250509295509295909350565b60006020828403121561340d5761340c612ce0565b5b600061341b84828501612f36565b91505092915050565b61342d81612e60565b82525050565b60006020820190506134486000830184613424565b92915050565b61345781612f8b565b82525050565b600060a082019050613472600083018861344e565b61347f602083018761329c565b61348c604083018661329c565b613499606083018561329c565b81810360808301526134ab8184612e05565b90509695505050505050565b6134c081612d6f565b81146134cb57600080fd5b50565b6000813590506134dd816134b7565b92915050565b600080604083850312156134fa576134f9612ce0565b5b600061350885828601612f36565b9250506020613519858286016134ce565b9150509250929050565b60006020828403121561353957613538612ce0565b5b600061354784828501612fb0565b91505092915050565b6000806040838503121561356757613566612ce0565b5b600061357585828601612e81565b925050602083013567ffffffffffffffff81111561359657613595612ce5565b5b6135a285828601613105565b9150509250929050565b600067ffffffffffffffff8211156135c7576135c6613008565b5b6135d082612df4565b9050602081019050919050565b60006135f06135eb846135ac565b613068565b90508281526020810184848401111561360c5761360b613003565b5b6136178482856130b4565b509392505050565b600082601f83011261363457613633612ffe565b5b81356136448482602086016135dd565b91505092915050565b6000806000806080858703121561366757613666612ce0565b5b600061367587828801612f36565b945050602061368687828801612f36565b935050604061369787828801612e81565b925050606085013567ffffffffffffffff8111156136b8576136b7612ce5565b5b6136c48782880161361f565b91505092959194509250565b60006060820190506136e5600083018661344e565b6136f2602083018561329c565b6136ff604083018461329c565b949350505050565b6000806040838503121561371e5761371d612ce0565b5b600061372c85828601612f36565b925050602061373d85828601612f36565b9150509250929050565b7f4e487b7100000000000000000000000000000000000000000000000000000000600052602260045260246000fd5b6000600282049050600182168061378e57607f821691505b602082108114156137a2576137a1613747565b5b50919050565b7f4552433732313a20617070726f76656420717565727920666f72206e6f6e657860008201527f697374656e7420746f6b656e0000000000000000000000000000000000000000602082015250565b6000613804602c83612db0565b915061380f826137a8565b604082019050919050565b60006020820190508181036000830152613833816137f7565b9050919050565b7f4552433732313a20617070726f76616c20746f2063757272656e74206f776e6560008201527f7200000000000000000000000000000000000000000000000000000000000000602082015250565b6000613896602183612db0565b91506138a18261383a565b604082019050919050565b600060208201905081810360008301526138c581613889565b9050919050565b7f4552433732313a20617070726f76652063616c6c6572206973206e6f74206f7760008201527f6e6572206e6f7220617070726f76656420666f7220616c6c0000000000000000602082015250565b6000613928603883612db0565b9150613933826138cc565b604082019050919050565b600060208201905081810360008301526139578161391b565b9050919050565b7f746f6b656e206e6f74206d696e74656400000000000000000000000000000000600082015250565b6000613994601083612db0565b915061399f8261395e565b602082019050919050565b600060208201905081810360008301526139c381613987565b9050919050565b7f4552433732313a207472616e736665722063616c6c6572206973206e6f74206f60008201527f776e6572206e6f7220617070726f766564000000000000000000000000000000602082015250565b6000613a26603183612db0565b9150613a31826139ca565b604082019050919050565b60006020820190508181036000830152613a5581613a19565b9050919050565b7f6d6f6e7468206d757374206265206265747765656e203120616e642031320000600082015250565b6000613a92601e83612db0565b9150613a9d82613a5c565b602082019050919050565b60006020820190508181036000830152613ac181613a85565b9050919050565b7f79656172206d75737420626520626967676572206f7220657175616c20310000600082015250565b6000613afe601e83612db0565b9150613b0982613ac8565b602082019050919050565b60006020820190508181036000830152613b2d81613af1565b9050919050565b7f4f776e61626c653a2063616c6c6572206973206e6f7420746865206f776e6572600082015250565b6000613b6a602083612db0565b9150613b7582613b34565b602082019050919050565b60006020820190508181036000830152613b9981613b5d565b9050919050565b7f636c61696d696e672061206461746520636f7374732031302066696e6e657900600082015250565b6000613bd6601f83612db0565b9150613be182613ba0565b602082019050919050565b60006020820190508181036000830152613c0581613bc9565b9050919050565b7f6120646174652066726f6d20746865206675747572652063616e27742062652060008201527f636c61696d656400000000000000000000000000000000000000000000000000602082015250565b6000613c68602783612db0565b9150613c7382613c0c565b604082019050919050565b60006020820190508181036000830152613c9781613c5b565b9050919050565b7f4e487b7100000000000000000000000000000000000000000000000000000000600052601260045260246000fd5b6000613cd882612e60565b9150613ce383612e60565b925082613cf357613cf2613c9e565b5b828206905092915050565b7f4552433732313a206f776e657220717565727920666f72206e6f6e657869737460008201527f656e7420746f6b656e0000000000000000000000000000000000000000000000602082015250565b6000613d5a602983612db0565b9150613d6582613cfe565b604082019050919050565b60006020820190508181036000830152613d8981613d4d565b9050919050565b7f4552433732313a2062616c616e636520717565727920666f7220746865207a6560008201527f726f206164647265737300000000000000000000000000000000000000000000602082015250565b6000613dec602a83612db0565b9150613df782613d90565b604082019050919050565b60006020820190508181036000830152613e1b81613ddf565b9050919050565b6000613e2d82612f8b565b9150613e3883612f8b565b925082613e4857613e47613c9e565b5b828206905092915050565b7f6f6e6c7920746865206f776e6572206f66207468697320646174652063616e2060008201527f6368616e676520697473207469746c6500000000000000000000000000000000602082015250565b6000613eaf603083612db0565b9150613eba82613e53565b604082019050919050565b60006020820190508181036000830152613ede81613ea2565b9050919050565b7f4552433732314d657461646174613a2055524920717565727920666f72206e6f60008201527f6e6578697374656e7420746f6b656e0000000000000000000000000000000000602082015250565b6000613f41602f83612db0565b9150613f4c82613ee5565b604082019050919050565b60006020820190508181036000830152613f7081613f34565b9050919050565b600081905092915050565b6000613f8d82612da5565b613f978185613f77565b9350613fa7818560208601612dc1565b80840191505092915050565b6000613fbf8285613f82565b9150613fcb8284613f82565b91508190509392505050565b7f4e487b7100000000000000000000000000000000000000000000000000000000600052601160045260246000fd5b600061401182612e60565b915061401c83612e60565b92508261402c5761402b613c9e565b5b828204905092915050565b600061404282612e60565b915061404d83612e60565b9250827fffffffffffffffffffffffffffffffffffffffffffffffffffffffffffffffff0382111561408257614081613fd7565b5b828201905092915050565b600061409882612e60565b91506140a383612e60565b9250828210156140b6576140b5613fd7565b5b828203905092915050565b60006140cc82612e60565b91506140d783612e60565b9250817fffffffffffffffffffffffffffffffffffffffffffffffffffffffffffffffff04831182151516156141105761410f613fd7565b5b828202905092915050565b7f4f776e61626c653a206e6577206f776e657220697320746865207a65726f206160008201527f6464726573730000000000000000000000000000000000000000000000000000602082015250565b6000614177602683612db0565b91506141828261411b565b604082019050919050565b600060208201905081810360008301526141a68161416a565b9050919050565b7f4552433732313a206f70657261746f7220717565727920666f72206e6f6e657860008201527f697374656e7420746f6b656e0000000000000000000000000000000000000000602082015250565b6000614209602c83612db0565b9150614214826141ad565b604082019050919050565b60006020820190508181036000830152614238816141fc565b9050919050565b7f4552433732313a207472616e73666572206f6620746f6b656e2074686174206960008201527f73206e6f74206f776e0000000000000000000000000000000000000000000000602082015250565b600061429b602983612db0565b91506142a68261423f565b604082019050919050565b600060208201905081810360008301526142ca8161428e565b9050919050565b7f4552433732313a207472616e7366657220746f20746865207a65726f2061646460008201527f7265737300000000000000000000000000000000000000000000000000000000602082015250565b600061432d602483612db0565b9150614338826142d1565b604082019050919050565b6000602082019050818103600083015261435c81614320565b9050919050565b600060c0820190506143786000830189613424565b6143856020830188613424565b614392604083018761344e565b61439f606083018661329c565b6143ac608083018561329c565b81810360a08301526143be8184612e05565b9050979650505050505050565b7f4552433732313a20617070726f766520746f2063616c6c657200000000000000600082015250565b6000614401601983612db0565b915061440c826143cb565b602082019050919050565b60006020820190508181036000830152614430816143f4565b9050919050565b7f4552433732313a207472616e7366657220746f206e6f6e20455243373231526560008201527f63656976657220696d706c656d656e7465720000000000000000000000000000602082015250565b6000614493603283612db0565b915061449e82614437565b604082019050919050565b600060208201905081810360008301526144c281614486565b9050919050565b60006144d482612e60565b91507fffffffffffffffffffffffffffffffffffffffffffffffffffffffffffffffff82141561450757614506613fd7565b5b600182019050919050565b7f4e487b7100000000000000000000000000000000000000000000000000000000600052603260045260246000fd5b600081519050919050565b600082825260208201905092915050565b600061456882614541565b614572818561454c565b9350614582818560208601612dc1565b61458b81612df4565b840191505092915050565b60006080820190506145ab6000830187612ef5565b6145b86020830186612ef5565b6145c56040830185613424565b81810360608301526145d7818461455d565b905095945050505050565b6000815190506145f181612d16565b92915050565b60006020828403121561460d5761460c612ce0565b5b600061461b848285016145e2565b91505092915050565b7f4552433732313a206d696e7420746f20746865207a65726f2061646472657373600082015250565b600061465a602083612db0565b915061466582614624565b602082019050919050565b600060208201905081810360008301526146898161464d565b9050919050565b7f4552433732313a20746f6b656e20616c7265616479206d696e74656400000000600082015250565b60006146c6601c83612db0565b91506146d182614690565b602082019050919050565b600060208201905081810360008301526146f5816146b9565b905091905056fea26469706673582212203f512d8abed594aa141477903a3aa3b80447c072a718afe2dba80bbbe97f60ec64736f6c634300080b003352656d656d6265722c2072656d656d6265722c2074686520357468206f66204e6f76656d6265722e417274206973206e657665722066696e69736865642c206f6e6c79206162616e646f6e65642e",
  "immutableReferences": {},
  "source": "// SPDX-License-Identifier: MIT\npragma solidity ^0.8.0;\n\nimport \"@openzeppelin/contracts/token/ERC721/ERC721.sol\";\nimport \"@openzeppelin/contracts/access/Ownable.sol\";\n\ncontract Date is Ownable, ERC721\n{\n\n    struct Metadata\n    {\n        uint16 year;\n        uint8 month;\n        uint8 day;\n        uint8 color;\n        string title;\n    }\n\n    mapping(uint256 => Metadata) id_to_date;\n\n    string private _currentBaseURI;\n\n    constructor() ERC721(\"Date\", \"DATE\")\n    {  \n        setBaseURI(\"https://localhost/token\");\n\n        mint(1, 1, 1, 4, \"ORIGIN\");\n\n        (uint16 now_year, uint8 now_month, uint8 now_day) = timestampToDate(block.timestamp);\n        mint(now_year, now_month, now_day, 4, \"Date Token Start\");\n        mint(2015, 7, 30, 6, \"ETH GENESIS\");\n        mint(1452, 4, 15, 5, \"Art is never finished, only abandoned.\");\n        mint(1605, 11, 5, 1, \"Remember, remember, the 5th of November.\");\n        mint(1564, 4, 23, 2, \"To be, or not to be\");\n        mint(1969, 7, 20, 3, \"One small step for man\");\n        mint(1986, 6, 12, 0, \"CBD\");\n        mint(1971, 6, 28, 7, \"Elon's Birthday\");\n    }\n\n    function setBaseURI(string memory baseURI) public onlyOwner { _currentBaseURI = baseURI; }\n\n    function _baseURI() internal view virtual override returns (string memory) { return _currentBaseURI; }\n\n    function mint(uint16 year, uint8 month, uint8 day, uint8 color, string memory title) internal\n    {\n        uint256 tokenId = id(year, month, day);\n        \n        id_to_date[tokenId] = Metadata(year, month, day, color, title);\n        _safeMint(msg.sender, tokenId);\n    }\n\n    function claim(uint16 year, uint8 month, uint8 day, string calldata title) external payable\n    {\n        require(msg.value == 0.01 ether, \"claiming a date costs 10 finney\");\n\n        (uint16 now_year, uint8 now_month, uint8 now_day) = timestampToDate(block.timestamp);\n        if ((year > now_year) || (year == now_year && month > now_month) || (year == now_year && month == now_month && day > now_day))\n        {\n            revert(\"a date from the future can't be claimed\");\n        }\n\n        uint8 color;\n        uint256 r = pseudoRNG(year, month, day, title) % 1000000;\n        if      (r < 1000)   { color = 7; } \n        else if (r < 6000)   { color = 6; }\n        else if (r < 16000)  { color = 5; }\n        else if (r < 66000)  { color = 4; }\n        else if (r < 166000) { color = 3; }\n        else if (r < 366000) { color = 2; }\n        else if (r < 666000) { color = 1; }\n        else                 { color = 0; }\n\n        mint(year, month, day, color, title);\n        payable(owner()).transfer(0.01 ether);\n    }\n\n    function ownerOf(uint16 year, uint8 month, uint8 day) public view returns(address) { return ownerOf(id(year, month, day)); }\n\n    function id(uint16 year, uint8 month, uint8 day) pure internal returns(uint256)\n    {\n        require(1 <= day && day <= numDaysInMonth(month, year));\n        return (uint256(year)-1)*372 + (uint256(month)-1)*31 + uint256(day)-1;\n    }\n\n    function get(uint256 tokenId) external view returns (uint16 year, uint8 month, uint8 day, uint8 color, string memory title)\n    {\n        require(_exists(tokenId), \"token not minted\");\n        Metadata memory date = id_to_date[tokenId];\n        year = date.year;\n        month = date.month;\n        day = date.day;\n        color = date.color;\n        title = date.title;\n    }\n\n    function titleOf(uint256 tokenId) external view returns (string memory)\n    {\n        require(_exists(tokenId), \"token not minted\");\n        Metadata memory date = id_to_date[tokenId];\n        return date.title;\n    }\n\n    function titleOf(uint16 year, uint8 month, uint8 day) external view returns (string memory)\n    {\n        require(_exists(id(year, month, day)), \"token not minted\");\n        Metadata memory date = id_to_date[id(year, month, day)];\n        return date.title;\n    }\n\n    function changeTitleOf(uint16 year, uint8 month, uint8 day, string memory title) external\n    {\n        require(_exists(id(year, month, day)), \"token not minted\");\n        changeTitleOf(id(year, month, day), title);\n    }\n\n    function changeTitleOf(uint256 tokenId, string memory title) public\n    {\n        require(_exists(tokenId), \"token not minted\");\n        require(ownerOf(tokenId) == msg.sender, \"only the owner of this date can change its title\");\n        id_to_date[tokenId].title = title;\n    }\n\n    function isLeapYear(uint16 year) public pure returns (bool)\n    {\n        require(1 <= year, \"year must be bigger or equal 1\");\n        return (year % 4 == 0) \n            && (year % 100 == 0)\n            && (year % 400 == 0);\n    }\n\n    function numDaysInMonth(uint8 month, uint16 year) public pure returns (uint8)\n    {\n        require(1 <= month && month <= 12, \"month must be between 1 and 12\");\n        require(1 <= year, \"year must be bigger or equal 1\");\n\n        if (month == 1 || month == 3 || month == 5 || month == 7 || month == 8 || month == 10 || month == 12) { return 31; }\n        else if (month == 2) { return isLeapYear(year) ? 29 : 28; }\n        else { return 30; }\n    }\n\n    function timestampToDate(uint timestamp) public pure returns (uint16 year, uint8 month, uint8 day)\n    {\n        uint z = timestamp / 86400 + 719468;\n        uint era = (z >= 0 ? z : z - 146096) / 146097;\n        uint doe = z - era * 146097;\n        uint yoe = (doe - doe/1460 + doe/36524 - doe/146096) / 365;\n        uint doy = doe - (365*yoe + yoe/4 - yoe/100);\n        uint mp = (5*doy + 2)/153;\n\n        day = uint8(doy - (153*mp+2)/5 + 1);\n        month = mp < 10 ? uint8(mp + 3) : uint8(mp - 9);\n        year = uint16(yoe + era * 400 + (month <= 2 ? 1 : 0));\n    }\n\n    function pseudoRNG(uint16 year, uint8 month, uint8 day, string memory title) internal view returns (uint256)\n    { return uint256(keccak256(abi.encode(block.timestamp, block.difficulty, year, month, day, title))); }\n}",
  "sourcePath": "/Users/ilyasuchkov/NFTs/contracts/Date.sol",
  "compiler": {
    "name": "solc",
    "version": "0.8.11+commit.d7f03943.Emscripten.clang"
  },
  "schemaVersion": "3.4.4",
  "updatedAt": "2022-01-23T10:29:55.763Z",
  "devdoc": {
    "kind": "dev",
    "methods": {
      "approve(address,uint256)": {
        "details": "See {IERC721-approve}."
      },
      "balanceOf(address)": {
        "details": "See {IERC721-balanceOf}."
      },
      "getApproved(uint256)": {
        "details": "See {IERC721-getApproved}."
      },
      "isApprovedForAll(address,address)": {
        "details": "See {IERC721-isApprovedForAll}."
      },
      "name()": {
        "details": "See {IERC721Metadata-name}."
      },
      "owner()": {
        "details": "Returns the address of the current owner."
      },
      "ownerOf(uint256)": {
        "details": "See {IERC721-ownerOf}."
      },
      "renounceOwnership()": {
        "details": "Leaves the contract without owner. It will not be possible to call `onlyOwner` functions anymore. Can only be called by the current owner. NOTE: Renouncing ownership will leave the contract without an owner, thereby removing any functionality that is only available to the owner."
      },
      "safeTransferFrom(address,address,uint256)": {
        "details": "See {IERC721-safeTransferFrom}."
      },
      "safeTransferFrom(address,address,uint256,bytes)": {
        "details": "See {IERC721-safeTransferFrom}."
      },
      "setApprovalForAll(address,bool)": {
        "details": "See {IERC721-setApprovalForAll}."
      },
      "supportsInterface(bytes4)": {
        "details": "See {IERC165-supportsInterface}."
      },
      "symbol()": {
        "details": "See {IERC721Metadata-symbol}."
      },
      "tokenURI(uint256)": {
        "details": "See {IERC721Metadata-tokenURI}."
      },
      "transferFrom(address,address,uint256)": {
        "details": "See {IERC721-transferFrom}."
      },
      "transferOwnership(address)": {
        "details": "Transfers ownership of the contract to a new account (`newOwner`). Can only be called by the current owner."
      }
    },
    "version": 1
  },
  "userdoc": {
    "kind": "user",
    "methods": {},
    "version": 1
  }
}